:020000040800F2
:10000000D8280020A10300082D5D0008C55A00086B
:10001000295D00080D190008C1B4000800000000A7
:100020000000000000000000000000008D640008D7
:100030004D1A000800000000ED630008C9640008C4
:10004000BB030008BB030008BB030008BB03000898
:10005000BB030008BB030008BB030008BB03000888
:10006000BB030008BB030008BB030008BB03000878
:10007000BB030008BB030008BB030008BB03000868
:10008000BB030008BB030008BB030008BB03000858
:100090007DB30008BB030008BB030008BB030008D6
:1000A000BB030008BB030008BB030008BB03000838
:1000B000BB030008BB030008BB030008BB03000828
:1000C000BB030008BB030008BB030008BB03000818
:1000D000BB030008997D0008BB030008BB030008B0
:1000E000BB030008BB030008BB030008BB030008F8
:1000F000BB030008BB030008BB030008BB030008E8
:10010000BB030008BB030008BB030008BB030008D7
:10011000BB030008BB030008BB030008BB030008C7
:10012000BB030008BB030008BB030008BB030008B7
:10013000BB030008BB030008BB030008BB030008A7
:10014000BB030008BB030008BB030008000000005D
:10015000000000000000000000000000000000009F
:10016000000000000000000000000000BB030008C9
:10017000BB030008BB03000861650008BB0300085F
:10018000BB030008BB030008BB030008BB03000857
:10019000BB03000800000000BB030008BB0300080D
:1001A000BB030008BB030008BB030008BB03000837
:1001B000BB030008BB030008BB030008BB03000827
:1001C000BB030008BB030008BB030008BB03000817
:1001D000BB030008BB03000800F002F800F0D1F8F0
:1001E00014A696E8000CB244B344DA4501D100F0FD
:1001F000C8F8BAE80F000FA696E83000A5EB040592
:1002000004EB0607AAEB0704A7F101074FEA15154F
:100210004FEA3414A4F10104AC4201D300F0B1F868
:1002200013F0010F18BFFB1A43F0010300F001F8AF
:10023000DBE7184710C8000030C800000A444FF040
:10024000000C10F8013B13F0070408BF10F8014B35
:100250001D1108BF10F8015B641E05D010F8016B7A
:10026000641E01F8016BF9D113F0080F1EBF10F8DE
:10027000014BAD1C0C1B09D16D1E58BF01F801CB01
:10028000FAD505E014F8016B01F8016B6D1EF9D584
:100290009142D6D37047000070470000002300242D
:1002A00000250026103A28BF78C1FBD8520728BF86
:1002B00030C148BF0B6070476E2900F00B82702977
:1002C00000F04F8366290CF0E48265290CF0E1828E
:1002D00067290CF0DE8261290CF0DD8203681B0ABD
:1002E00028BF41F08001692900F0B881642900F03D
:1002F000B581752900F0B2816F2900F0DD8278297F
:1003000000F01B83E92900F07782E42900F0748271
:10031000F52900F07182EF2900F0DA82F82900F067
:100320001A830368DB0928BF41F08001632901F0CB
:100330006780732901F06C80E32901F07780F3294D
:1003400001F07C80002070471FB50CF095FA9DE805
:10035000030001F00FF901F0F1F804000020002182
:100360000CF074FA401C6060002000210CF058FA78
:10037000E06000F0FBF81FBD10B5002001F086F82A
:1003800010BD01F0A9F81146FFF7DEFF0BF034FEB7
:1003900001F0FEF903B4FFF7EFFF03BC01F066FACA
:1003A0000948804709480047FEE7FEE7FEE7FEE709
:1003B000FEE7FEE7FEE7FEE7FEE7FEE70448054945
:1003C000054A064B704700004D650008D90100083A
:1003D000D8220020D8280020D8240020D8240020AB
:1003E00053EA020C00F069802DE9F04B4FF0000653
:1003F000002B1FBFB3FA83F503FA05F424FA05F6C0
:100400005E4012BF1643B2FA82F502FA05F4C5F156
:1004100020051EBF22FA05FC44EA0C04203556EAEA
:10042000044C4FEA144418BF641C4FF000084FF00E
:100430000009904271EB030C39D3002919BFB1FABE
:1004400081F701FA07F6B0FA80F700FA07F6C7F16C
:1004500020071EBF20FA07FC46EA0C062037B6FB31
:10046000F4FCA7EB0507103F07F01F0BCBF12006AC
:100470002CFA06F60CFA0BFB44BFB3460026202FDD
:10048000A4BF5E464FF0000B5BEA060C08BF4FF0BE
:10049000010B19EB0B0948EB0608ABFB027C06FBD2
:1004A00002CC0BFB03CCC01B71EB0C01C1E70B466C
:1004B000024641464846BDE8F08B13B5084318BFD5
:1004C0004FF0FF300146AFF30080BDE81C4070479D
:1004D0007CB51D4616460C00009007D04142A14253
:1004E00002D32044401E01E04FF0FF30064B7B4416
:1004F0002A4669460190304600F005F9002C02D0EA
:10050000009A002111707CBD3B0200000B460146A1
:10051000184600F0F5BA4FF0000200B513469446B5
:100520009646203922BFA0E80C50A0E80C50B1F14B
:100530002001BFF4F7AF090728BFA0E80C5048BF5F
:100540000CC05DF804EB890028BF40F8042B08BFFD
:10055000704748BF20F8022B11F0804F18BF00F8F9
:10056000012B7047704770477047000008487CB502
:100570007844009007487844009C0546019004E0C8
:100580002046016808448047241DAC42F8D17CBD58
:100590001CC600001EC6000070B5044685690068D0
:1005A000C10601D5302600E02026C00707D070BD67
:1005B000D4E9012130469047206A401C20626D1E1C
:1005C000F6D570BD70B5044685690078C00707D1BF
:1005D00070BDD4E9012120209047206A401C206290
:1005E0006D1EF6D570BD09684A0501D540B2704749
:1005F000C905FCD500B2704709684A0501D5C0B2EB
:100600007047C905FCD580B2704770B50C460546E9
:10061000012A05D02878800600D5EA69002302E087
:10062000012305E05B1C934202D2E05C0028F9D173
:10063000A869E618C01AA861286A184428622846E2
:10064000FFF7AAFF04E0D5E9012114F8010B904758
:10065000B442F8D32846FFF7B5FF70BD2DE9F0414D
:100660000646002410687529314616A510D0FFF7FC
:10067000BAFF002802DA404213A507E031688A0772
:1006800001D512A502E0490704D511A5012401E016
:10069000FFF7B2FF00210A2206F1240709E0B0FBB0
:1006A000F2FCB0FBF2F302FB1C0030307854184629
:1006B000491C0028F3D123462A463046BDE8F041C4
:1006C00000F0AEBA000000002D0000002B0000007A
:1006D0002000000011680268006A530501D5087007
:1006E0000AE0D30501D5088006E0130603D5C2173A
:1006F000C1E9000200E008600120704701694A1C5E
:1007000002610878704700B58FB0CDE90131002152
:10071000059105497944CDE903101146684600F07A
:100720002BF90FB000BD0000E5FFFFFFD1E900236A
:100730009A4202D2531C0B60107070472DE9FF5F84
:1007400015468A460446DFF8AC80F8440027D8E90D
:1007500000103E46CDE9001010E03AF816106A4647
:1007600002A800F06FFE411C07D02178890603D54E
:10077000E269391891420DD80744761C207880062A
:1007800002D5E069B84205DDAE42E6DB3AF8160074
:100790000028E2D1A069C01BA0612046FFF7FCFE43
:1007A000D8E90010CDE90010002017E03AF8181041
:1007B0006A4602A800F046FEB0F1FF3F81460BD02A
:1007C00000250DF1080B05E0D4E901211BF8050017
:1007D00090476D1C4D45F7D308F10100B0428046AB
:1007E000E4DB206A384420622046FFF7EBFEBDE8D8
:1007F000FF9F00004EC100002DE9F0418046D21D50
:1008000022F007020025D2E90002F52915A614D02E
:10081000011E72F1000106DA0023D0EB030063EB46
:10082000020211A608E0D8F800108B0701D50FA628
:1008300002E0490701D50EA601251146002408F162
:10084000240704E000F0A7F930323A55641C50EA5E
:100850000102F7D12B46324621464046BDE8F04121
:1008600000F0DEB9000000002D0000002B000000A9
:100870002000000030B4002100F1240408E002F060
:100880000705D208303542EA4372DB086554491C3B
:1008900052EA0305F3D10468002310A2250708D506
:1008A00004F020040C4304D0C46901230CA2641E8C
:1008B000C46130BC00F0B4B910B5044621461068DC
:1008C000FFF79AFE02462046BDE810400023D1E71C
:1008D000D21D22F00701D1E90023CBE70000000080
:1008E00030000000F0B40D460188090502D5214C06
:1008F0007C4402E01F4C7C440E34002100F12406AD
:1009000008E002F00F071209E75D42EA03721B09D3
:100910007754491C52EA0307F3D1027800231207E7
:1009200004D5702D06D009B1022311342246F0BC43
:1009300000F076B901231034F8E770B504460D468F
:1009400021461068FFF758FE024629462046BDE8BA
:1009500070400023C6E7D21D22F00703D3E900232D
:10096000C0E70368126843F0200303600823C361F3
:100970000023B7E7B0BF00002DE9F05F89460446C9
:100980004FF0000ADFF874B1FB44C0F820A0204605
:10099000E1688847002874D0252806D0D4E90121D1
:1009A0009047206A401C2062F1E700265F462046FF
:1009B000E16888472028054607DB312D05D27819E4
:1009C00010F8200C08B10643F1E7B00701D526F076
:1009D0000406C4F81CA00027C4F818A02A2D09D0CA
:1009E00028460BF015FF38B304EB8708303DC8F8F4
:1009F000185019E059F8041B204604EB8702916156
:100A0000E1688847012F054618D1E069002820DAFF
:100A100026F020061DE0D8F8180000EB800005EB5A
:100A200040003038C8F818002046E168884705467D
:100A30000BF0EEFE0028EED1012F0AD02E2D08D1AA
:100A40002046E16888477F1C0546022F46F02006B5
:100A5000C4DBA069002803DA404246F00106A06129
:100A6000F00701D026F010066C2D0BD0682D09D0B0
:100A70004C2D39D06A2D35D0742D35D07A2D33D008
:100A800016E038E0E1682F4620468847B842054620
:100A900009D16C2F26D04FF48060E16806432046D0
:100AA0008847054604E06C2F1AD04FF48070064347
:100AB0000DB3A5F14100192802D8203546F400668F
:100AC0004A462946204626604E46FFF7F5FB80B190
:100AD00001280BD0F61D26F0070000F1080956E7A3
:100AE0004020E4E78020D8E70020D6E706F104099B
:100AF0004DE7284652E7206ABDE8F09F40BF00005E
:100B00002DE9F041074615460E46102000F014F876
:100B100004000AD06760C4E9026500F009F80168C2
:100B2000216004600020BDE8F0810120FBE70000A7
:100B300000487047C001002070B5064600F0FAFC7E
:100B4000056806F10B0020F00704B4429CBF0020AA
:100B500070BD2B466A68BAB11068A04210D304F188
:100B6000080188423CBF5068586007D3516810198B
:100B700041601168091B016058601460101D70BD50
:100B800013465268002AE7D12146284600F0DEFCD1
:100B90000028DED170BD30B5B0F10A0271F100035A
:100BA0004FEA900E4EEA817EB0EB0E0061EB9101B0
:100BB0004FEA101E4EEA017E10EB0E0041EB1111C0
:100BC0004FEA102E4EEA016E10EB0E0041EB1121A0
:100BD0004FEA104E4EEA014E10EB0E0041EB114170
:100BE000401841F100014FEAD00040EA41704FEA5D
:100BF000D1014FEA810444EA907410EB800544EB84
:100C000001046D1944EB0404521BA3414FF000038F
:100C100048BF0A3200D530BD401C41F1000130BD53
:100C20002DE9F0470D4699469246044600F1240806
:100C30000168880604D5E06921F01001216000E018
:100C40000120A84201DD471B00E00027A1697A19B5
:100C500002EB0900081AA0612078C00602D42046E1
:100C6000FFF79AFC002608E0D4E901211AF80600F3
:100C70009047206A401C761C20624E45F4DB2078A9
:100C8000C0060AD52046FFF787FC06E0D4E901211B
:100C900030209047206A401C2062381EA7F10107CF
:100CA000F4DC07E0D4E9012118F805009047206A38
:100CB000401C2062281EA5F10105F3DC2046FFF749
:100CC00081FC2078000602D50220BDE8F0870120D3
:100CD000FBE72DE9FF4F0C461E464FF0FF378BB068
:100CE000D2E90001DDF860800A908A46C1F30A5516
:100CF00005B93D46002108464FF00000BAF1000F4B
:100D000000F4400005DA00EB80004FF4400101EAF6
:100D100050004FEA9059B9F1010F00DDB9460A9829
:100D200050EA4A000ED044F61050A5F2FF35454374
:100D30002F14B8F1000F1ED07542291E1EDDC9F117
:100D400000021CE0B8F1010F4FF0000001D030218B
:100D500003E0F24305E02154401CB042FBDB304687
:100D60000022002121540B99C1F80880C1E900201C
:100D70000FB0BDE8F08FBD1B6D1CDEE74A4600DA00
:100D8000694206A800F092FC06AB93E8070003ABAB
:100D900083E8070050460A990BF059F98DE80700DF
:100DA000A0F500501F3800900398002D0ADD42F294
:100DB0001F014A460844002303A9039068460BF02C
:100DC000C3FB09E0A0F500504A461F38002303A9E1
:100DD000039068460BF0CDFB8DE807000004000C83
:100DE00003D04FF0FF30410800E01046B8F1000F8B
:100DF00003D00022009215461EE0751E05D4FFF7B1
:100E0000CAFE303262556D1EF9D5B3460122084341
:100E100002D000227F1C04E02078302801D100227B
:100E20007F1E002A099784D01DE0112D07DAFFF7F5
:100E3000B2FE303262556D1C50EA0102F5D1084312
:100E400002D00098C8B10EE00021681E05E0235CC6
:100E5000625C63542254401E491C8142F7DBAB465E
:100E6000A81B401E0990002004F80B000B98099A5B
:100E7000C0F80880C0E9002B7AE711264FF000087F
:100E800057E72DE9F04F88460446D21D22F00701AE
:100E900091B0D1E90001CDE90A010BF0A1FC0246B5
:100EA0000B98C00F01D02D2007E02068810701D5E5
:100EB0002B2002E0202101EAC000032A099001D082
:100EC000072A05DB03464146204600F0AFFB0BE155
:100ED0002078800601D5E06900E00620B8F1650FB2
:100EE000814606D0B8F1660F18D0B8F1670F70D1FF
:100EF00031E00020B9F1110F009001DB112301E076
:100F000009F101030AAA01A90CA8FFF7E2FEDDE935
:100F10000C70002609F10105834647E001204B468D
:100F200000904FF000470AAA01A90CA8FFF7D1FED4
:100F3000DDE90DB00C995D46002610B909F10100FC
:100F40000D18B9EB050003D4C0F1FF3609F1010516
:100F5000A5EB09002BE0B9F1010F01DA4FF001090F
:100F60000020B9F1110F0090484601DD112300E087
:100F700003460AAA01A90CA8FFF7ABFEDDE90C7035
:100F80004D4600268346207800070AD4AB4500DA98
:100F90005D4601A8012D04DD411911F8011C30291D
:100FA00007D04F4502DA17F1040F04DA0120824618
:100FB0000FE06D1EEEE7002F02DCED1B3E4403E068
:100FC000781CA84200DD7D1CB81B00F1010A4FF01F
:100FD00000472078000703D4AA4501DB4FF0FF3A11
:100FE0000021B7F1004F0DF143088DF8431024D0D4
:100FF00002202B23002F01DA7F422D230A21021E1B
:10100000A0F1010000DC5FB197FBF1FC97FBF1F26E
:1010100001FB1C7C17460CF1300C08F801CDEEE703
:10102000A8F1010003702188090501D5452100E0E0
:101030006521A0F1010800F8011C09980FA9A1EB96
:101040000807FF1D00B10120411901EBEA70A169F9
:101050003844081A401EA0612078C00602D42046F9
:10106000FFF79AFA099828B1D4E901219047206A3C
:10107000401C20622078C00622D52046FFF78CFA5B
:101080001EE0002E04DBB34502DD01A8805D00E018
:101090003020D4E901219047206A401C2062761C50
:1010A000AAF101005FEA000A0AD100F047FAC0681D
:1010B0000168405CD4E901219047206A401C20620D
:1010C000281EA5F10105DCDC07E0D4E9012118F8B0
:1010D000010B9047206A401C2062381EA7F10107CF
:1010E000F3DC2046FFF76EFA032011B041E6000062
:1010F0002DE9F04F04460D46D21D22F0070089B0BD
:10110000D0E90097484639460BF06AFB0246F80FD3
:1011100001D02D2307E02068810701D52B2302E0B1
:10112000202101EAC0038DF820300BB1012000E03E
:101130000020032A824601D0072A04DB29462046E4
:1011400000F074FA3FE12078800601D40D2500E01C
:10115000E569C7F30A560D2D49DA00214FEA175BFE
:1011600008464FF00000002F00F4400007DA00EBC3
:1011700080004FF4400100EBD07001EA600081155F
:10118000012901DD4FF0FF3100224FEA850CBCF14F
:10119000180F06D31346ACF118004FF08052C2402E
:1011A00003E04FF4801323FA0CF30CF10C0CBCF1A8
:1011B000200F04D3ACF1200C09FA0CF001E007FA7F
:1011C0000CF000294FF0004801DD18B90FE00ED1F6
:1011D00040450CD319EB02095F4121B9404502D1CA
:1011E0009F4329EA0209BBEB175F00D0761C2088D9
:1011F000000502D57B48784402E07A4878441938E3
:1012000008AA302302F80A30037C0AF10101002EFB
:101210000AF1020A53546A4602DC4FF0300101E041
:101220004FF031014FF001088DF8001002D0A6F206
:10123000FF3603E059EA470100D06B4E002D02DC77
:101240002178090704D54FF002082E218DF80110EE
:10125000C44600210BE0C7F303433F01C35C491CB4
:101260006D1E02F80830052908F1010801DA002D89
:10127000F1DC00210CE000EB1973491C1B786D1E9A
:10128000082902F808304FEA091908F1010801DAC3
:10129000002DF0DC21688B0602D516E0A8F10108CC
:1012A000E04505DD02EB080313F8013C302BF5D0D7
:1012B000B8F1000F09DD02EB080313F8013C2E2BF7
:1012C00003D1090701D4A8F10108002D05DD3E2155
:1012D00002F808106D1E08F10108407C002E02F88B
:1012E000080008F1010804DA2D20764202F808000F
:1012F00002E02B2002F808000A214FF47A7086429F
:1013000008F101080BDB96FBF0F3303302F80830EC
:1013100096FBF0F308F1010800FB136601E0642E70
:101320000CDB642096FBF0F3303302F8083096FBB8
:10133000F0F308F1010800FB136601E00A2E06DB5A
:1013400096FBF1F0303002F8080008F1010896FB36
:10135000F1F001FB1060303002F80800A16908F1DB
:10136000010808EB050202EB0A00081AA0612078C8
:10137000C00602D42046FFF70FF9216A08AE01EB40
:101380000A00206204E0D4E9012116F8010B90471D
:10139000BAF1010AF7D22078C00602D52046FFF73D
:1013A000FBF86E4609E016F8010B3E280FD0D4E991
:1013B00001219047206A401C2062B8F10108F2D256
:1013C0002046FFF7FFF809B00320BDE8F08F206A40
:1013D0002844206203E0D4E90121302090476D1EAB
:1013E000EBD3F8E7F6B6000002FCFFFF10B5436947
:1013F00013B1AFF3008001E0FFF707F9012010BD42
:10140000127800F124010A7000224A700122EDE7EF
:1014100011684FF0FF32E9E710B5436913B1AFF33C
:10142000008001E0FFF78AF9012010BD128800F169
:10143000240182840022C2840122EDE711684FF06A
:10144000FF32E9E72DE9F04116460C46054600F06B
:1014500069F8036893F80101012807D0FF2C12D81E
:10146000185D80B101202C70BDE8F081D3F8070130
:101470003246214603F20713C7182846BC46BDE88A
:10148000F041002360474FF0FF30EDE72DE9F041D8
:101490000646FFF74DFB8046454613E016B1E0686F
:1014A000B0420ED120682860D4E90101D8F800705C
:1014B0008847204600F093F8D8F80000B842EBD1F6
:1014C00000E025462C68002CE8D1BDE8F081000042
:1014D00000487047880100207546FFF7F9FFAE46C7
:1014E00005006946534620F00700854618B020B530
:1014F000FEF764FFBDE820404FF000064FF0000704
:101500004FF000084FF0000BAC46ACE8C009ACE867
:10151000C009ACE8C009ACE8C00921F007018D465C
:101520007047000010B500F009F8001D10BD00BFA5
:101530001DB300000048704790010020004870472C
:10154000A8010020704770477047704738B50446BF
:101550000A4600206946AFF30080002808BF38BD66
:1015600002460099204600F01CF9012038BD0120F8
:1015700000F036B9F8B5AFF30080054600200C4600
:101580000C2000BF0646A819A0420DD93246694674
:101590000020AFF30080070008BF00F021F9009899
:1015A000A04218BF0546C419FFF7C4FF05600746EF
:1015B000F01D20F007004619284600F00AF8B44252
:1015C00008BFF8BDA21B31463868BDE8F84000F0FE
:1015D000E8B800210160416070470C20704770B589
:1015E0000446051FFFF7A6FF0068002C14BF4468DF
:1015F00070BD002C18BFAC423CBF20466468F8D3D5
:1016000001680A18AA4218BF456003D12A68054636
:101610001144016028684119A1421CBF6C6070BD73
:101620006168696021680844286070BD2DE9F04157
:101630001F46044603260168072A01F4006004DB04
:1016400008B116A505E016A503E008B115A500E050
:1016500015A521F010002060A069C01EA0610FB187
:10166000401EA0612046FEF797FF4FB1D4E901214B
:1016700038469047206A401C2062C01C206206E069
:10168000206AFAE7D4E9012115F8010B9047761E8C
:10169000F8D22046FEF796FFBDE8F0814E414E009D
:1016A0006E616E00494E4600696E66002DE9F04796
:1016B000814616468AB0354878440DC88DE80D003D
:1016C00032487844801C03AC0DC884E80D0041F614
:1016D0009B300844372190FBF1F290FBF1F5A5F126
:1016E000800501FB12041B3C02D56442012000E08E
:1016F0000020DFF898A080460027FA44AAF1BE0A2D
:101700000EE0E0070AD03246684607EB47010123A6
:101710000AEB81010AF02DFF8DE8070064107F1CA1
:10172000002CEED1194F7F44AE3F19E0E80715D0E9
:1017300007EB04100DF1180A90E80E008AE80E007D
:10174000C068F04201D1981908903246012306A9D9
:1017500003A80AF00EFF03AB83E807006D10641CBA
:10176000002DE3D14FF0010332466946B8F1000F76
:1017700003A802D00AF0E8FE01E00AF0FAFEC9E987
:101780000001C9F808200AB0BDE8F087C4B2000023
:1017900010B50446AFF300802046BDE81040FEF7C8
:1017A000F9BD034640688C46002818BF88423CBFFC
:1017B00003464068F8D318681844884207D00CF1F3
:1017C000030020F00700001D411A521A0146081DAF
:1017D0000A60FFF704BF002801D000F047B8704747
:1017E00010B500F063F8BDE81040FFF7F4BF00004B
:1017F00030B44FF0013C50F8042B51F8043BCCFAC4
:1018000052F4D51A20D1FCB950F8042B51F8043BFE
:10181000CCFA52F4D51A17D1B4B950F8042B51F8B8
:10182000043BCCFA52F4D51A0ED16CB950F8042B03
:1018300051F8043BCCFA52F4D51A05D1002CDAD079
:1018400030BC4FF00000704729BAB1FA81F111F0B5
:101850001801D1F120008440F2D1CA40CB4012F0EF
:10186000FF0213F0FF0330BCD01A70470149182063
:10187000ABBEFEE726000200704770B505460C4679
:101880000A2000E06D1C00F039F835B128780028F6
:10189000F8D102E0641C00F031F814B1207800287F
:1018A000F8D1BDE870400A2000F028B810B5012832
:1018B00005D0002103A0FFF7E0FF012010BD09A122
:1018C000F8E7000053494752544D454D3A204F75B3
:1018D00074206F662068656170206D656D6F727928
:1018E000000000003A2048656170206D656D6F72E0
:1018F0007920636F727275707465640008B569460B
:101900008DF800000320ABBE08BD0000FFE7FEE736
:1019100084B08DF80F000291ADF806209DF80F00FD
:101920000146009123281DD80099DFE801F0121329
:101930001415161B1B1B1B1B1B1B1B1B1B1B1B1B09
:101940001B1B1B1B1B1B1B1B1B1B1B1B1B1B1718EE
:10195000191A08E007E006E005E004E003E002E011
:1019600001E000E0FFE7002004B07047002070476E
:1019700080B582B041F6F830C2F20000009041F22A
:10198000F431C2F200010022019206F0D3FC00986B
:1019900040F6F431C2F2000106F0B2FC019802B048
:1019A00080BD000080B584B0039002910398029935
:1019B000098800F01BF8039941F6F830C2F20000E4
:1019C000019006F09DFC019806F044FC002004B054
:1019D00080BD000083B0029001918DF803200020AB
:1019E0008DF802009DF9020003B0704780B586B003
:1019F0000490ADF80E1000208DF80D0041F6F8307F
:101A0000C2F20000D0F8BC0202900298D0F8140292
:101A100020B1FFE701208DF8170013E00499BDF80D
:101A20000E2041F6F830C2F20000019006F082FC70
:101A3000019806F06DFD8DF80D009DF80D008DF8F4
:101A40001700FFE79DF8170006B080BD7047000043
:101A500081B0EFF3108072B60090FFE7FEE7000060
:101A600080B584B047F29050C1F6FF7000680390D3
:101A700047F29450C1F6FF700068029047F2985008
:101A8000C1F6FF7000680190019903980844039023
:101A9000039888B1FFE7039840F26011C2F2000199
:101AA00000910231082204F00FF8009902981231D7
:101AB000042204F009F8FFE704B080BD82B0019071
:101AC00000208DF80300019890F82500022807D027
:101AD000FFE701990420C86301208DF803002DE081
:101AE00001980168086820F00E0008600198816C78
:101AF000086820F48070086001980168086820F088
:101B0000010008600198016C406C00F01F02012088
:101B1000904048600198C16C006D48600198406D2C
:101B200058B1FFE70198416D086820F480700860A3
:101B30000198816DC06D4860FFE7FFE701990120C2
:101B400081F82500FFE70199002081F82400FFE7D4
:101B50009DF8030002B0704780B582B0019000206C
:101B60008DF80300019890F82500022811D0FFE7B6
:101B700001990420C8630199012081F82500FFE73D
:101B80000199002081F82400FFE701208DF803006F
:101B90003FE001980168086820F00E000860019895
:101BA0000168086820F0010008600198816C0868ED
:101BB00020F4807008600198016C406C00F01F02F6
:101BC0000120904048600198C16C006D4860019808
:101BD000406D58B1FFE70198416D086820F48070AE
:101BE00008600198816DC06D4860FFE70199012090
:101BF00081F82500FFE70199002081F82400FFE724
:101C00000198806B20B1FFE70198816B8847FFE75F
:101C1000FFE79DF8030002B080BD00008BB00A9082
:101C2000099100200890FFE7099800680899C840CA
:101C3000002800F0A581FFE709980068089A0121B3
:101C40009140084007900798002800F09581FFE731
:101C50000998406800F00300012807D0FFE70998C1
:101C6000406800F0030002282FD1FFE70A9880683F
:101C7000069008984100032000FA01F10698884375
:101C800006900998C0680899490000FA01F1069881
:101C90000843069006980A9988600A98406806905A
:101CA0000899012000FA01F10698884306900998E6
:101CB0004068C0F30010089900FA01F10698084343
:101CC000069006980A994860FFE70998406800F076
:101CD0000300032818D0FFE70A98C0680690089808
:101CE0004100032000FA01F1069888430690099804
:101CF00080680899490000FA01F1069808430690A7
:101D000006980A99C860FFE70998406800F0030048
:101D1000022826D1FFE70A9808996FF0030202EA29
:101D200051010844006A0690089800F007008100FD
:101D30000F2000FA01F1069888430690099800697F
:101D4000089901F00701890000FA01F1069808439B
:101D5000069006980A99089B02EA53021144086209
:101D6000FFE70A980068069008984100032000FAEF
:101D700001F10698884306900998406800F0030036
:101D80000899490000FA01F1069808430690069860
:101D90000A990860099880798007002800F0EB8094
:101DA000FFE7FFE741F26000C4F20200016841F082
:101DB00001010160006800F0010005900598FFE74F
:101DC000089820F003000821C4F201014058069051
:101DD000089800F0030081000F2000FA01F1069836
:101DE000884306900A98B0F1904F03D1FFE7002096
:101DF000049042E00A9840F20041C4F60001884293
:101E000003D1FFE70120039034E00A9840F6000177
:101E1000C4F60001884203D1FFE70220029026E0C9
:101E20000A9840F60041C4F60001884203D1FFE75A
:101E30000320019018E00A9841F20001C4F6000165
:101E4000884203D1FFE7042000900AE00A9941F29A
:101E50000042C4F600020620914208BF052000900F
:101E6000FFE700980190FFE701980290FFE70298D2
:101E70000390FFE703980490FFE70498089901F0A6
:101E80000301890000FA01F10698084306900698BC
:101E9000089921F003010822C4F20102885040F29F
:101EA0000840C4F20100006806900799069888432C
:101EB000069009988079C006002805D5FFE70799A4
:101EC000069808430690FFE7069840F20841C4F2DE
:101ED0000101086040F20C40C4F201000068069065
:101EE000079906988843069009988079800600280B
:101EF00005D5FFE70799069808430690FFE706987F
:101F000040F20C41C4F20101086040F20440C4F206
:101F10000100006806900799069888430690099882
:101F200080798007002805D5FFE7079906980843C0
:101F30000690FFE7069840F20441C4F201010860F0
:101F400040F20040C4F2010000680690079906982C
:101F50008843069009988079C00728B1FFE7079960
:101F6000069808430690FFE7069840F20041C4F245
:101F700001010860FFE7FFE708980130089053E689
:101F80000BB0704782B00190ADF802108DF80120BF
:101F90009DF8010028B1FFE7BDF8020001998861B2
:101FA00004E0BDF8020001998862FFE702B07047C3
:101FB00042F2D420C2F200000068704740F27C1068
:101FC000C2F20000026842F2D421C2F200010868A5
:101FD000104408607047000080B582B000208DF882
:101FE0000700032000F0C0F80F2000F00DF820B12A
:101FF000FFE701208DF8070002E000F06FF8FFE72F
:102000009DF8070002B080BD80B58CB00B90002019
:1020100005900490FFE741F26000C4F202000168FD
:1020200041F480110160006800F480100190019873
:10203000FFE706A803A902F00BF802F04DF805909F
:1020400005984DF68361C4F21B31A0FB01014FF0EE
:10205000FF3000EB9140049042F2F010C2F2000019
:1020600045F20001C4F20101016040F2E731C160B4
:102070000499416000210161816002F0B7FC8DF894
:102080000B009DF80B0028BBFFE742F2F010C2F2F4
:10209000000002F09BFD8DF80B009DF80B00C0B90D
:1020A000FFE74E2000F03EF80B980F280CD8FFE712
:1020B0000B994E20002200F03FF80B9840F280115F
:1020C000C2F20001086003E001208DF80B00FFE779
:1020D000FFE7FFE79DF80B000CB080BD80B582B034
:1020E000FFE741F26000C4F20200016841F0010123
:1020F0000160006800F0010001900198FFE7FFE730
:1021000041F25800C4F20200016841F080510160C0
:10211000006800F0805000900098FFE701F068FB35
:1021200002B080BD80B582B08DF807009DF9070030
:1021300009F072FE02B080BD80B586B08DF8170040
:102140000491039209F080FE02909DF9170001901E
:1021500002980499039A03F0EBFD0146019809F0F7
:102160007BFE06B080BD000080B582B00190019872
:1021700009F094FE02B080BD82B001900198006821
:10218000009001990120C1F8D0020199002081F846
:10219000C802009AB2F8541041F00101A2F854109C
:1021A000009AB2F8541041F00201A2F8541002B0A3
:1021B0007047000080B584B003908DF80B109DF837
:1021C0000B000146019120B1FFE70198012815D0CD
:1021D00027E00398407A58B1FFE704F077F94EF60C
:1021E0001051CEF20001086820F006000860FFE7F9
:1021F0000398D0F8D80206F0BFFF12E00398D0F899
:10220000D80207F09FF80398407A48B1FFE74EF6EE
:102210001051CEF20001086840F006000860FFE7A8
:10222000FFE704B080BD000084B00390ADF80A1051
:10223000ADF808200193BDF80A00000600280CD56F
:10224000FFE70398BDF80A1001F0070101EB8101D7
:1022500000EBC100103000900AE00398BDF80A10AE
:1022600001EB810100EBC10000F5A8700090FFE7D1
:10227000BDF8080038B9FFE70099002008730198FD
:102280000099C8800AE0009901200873019800991C
:102290000881BDF8060000994881FFE7002004B0DE
:1022A0007047000080B582B001908DF80310019A4C
:1022B000D2F8D8029DF8031001EB810302EBC302B0
:1022C000526A06F011FD02B080BD000080B582B0F8
:1022D00001908DF80310019AD2F8D8029DF80310EE
:1022E00001EB810302EBC302D2F8642106F0A2FDE8
:1022F00002B080BD80B584B002908DF807109DF8C3
:102300000700000600280FD5FFE702989DF8071088
:1023100001F0070101EB810100EBC10010300090DA
:102320000099012048700FE002989DF8071001F015
:10233000070101EB810100EBC10000F5A8700090DE
:10234000009900204870FFE79DF8070000F00700A3
:1023500000990870FFE7029890F89002012804D1D4
:10236000FFE702208DF80F0014E00299012081F8A8
:102370009002FFE7FFE702980068009908F03EF836
:10238000FFE70299002081F89002FFE700208DF816
:102390000F00FFE79DF80F0004B080BD80B584B04A
:1023A00002908DF807109DF8070000F00F000299C9
:1023B0000979884204D9FFE701208DF80F004DE02C
:1023C0009DF80700000600280FD5FFE702989DF84A
:1023D000071001F0070101EB810100EBC100103093
:1023E00000900099012048700FE002989DF80710B6
:1023F00001F0070101EB810100EBC10000F5A870BD
:102400000090009900204870FFE700990020887034
:102410009DF8070000F0070000990870FFE7029898
:1024200090F89002012804D1FFE702208DF80F00F8
:1024300014E00299012081F89002FFE7FFE702987B
:102440000068009908F0BAF9FFE70299002081F8C6
:102450009002FFE700208DF80F00FFE79DF80F00C6
:1024600004B080BD80B586B005900491ADF80E2013
:10247000BDF80E004004002876D5FFE705980068F7
:10248000B0F850000499097800EBC100059909687B
:102490000844B0F802046FF39F20ADF80C000498D4
:1024A0008069BDF80C10884207D3FFE7BDF80C2007
:1024B00004998869801A886103E004990020886182
:1024C000FFE704988069F8B9FFE7FFE7059800681F
:1024D0000499097830F821004BF68F710840ADF867
:1024E0000A00BDF80A0080F40050ADF80A00BDF8FB
:1024F0000A0048F28001084305990968049A127895
:1025000021F82200FFE7FFE7BDF80E004006002893
:102510001BD5FFE7FFE7FFE70598006804990978F6
:1025200030F8210048F68F710840ADF80800BDF87A
:10253000080048F2C001084305990968049A127816
:1025400021F82200FFE7FFE7FFE7BDF80C0050B1DC
:10255000FFE705980068049A51691289BDF80C30AC
:1025600008F01EFFFFE775E005980068B0F850001E
:102570000499097800EBC100059909680844B0F88E
:1025800006046FF39F20ADF80C0004988069BDF835
:102590000C10884207D3FFE7BDF80C200499886926
:1025A000801A886103E0049900208861FFE704989D
:1025B0008069F8B9FFE7FFE7059800680499097892
:1025C00030F821004BF68F710840ADF80600BDF8D9
:1025D000060080F40050ADF80600BDF8060048F291
:1025E0008001084305990968049A127821F82200AD
:1025F000FFE7FFE7BDF80E00400600281BD4FFE709
:10260000FFE7FFE7059800680499097830F8210092
:1026100048F68F710840ADF80400BDF8040048F298
:10262000C001084305990968049A127821F822002C
:10263000FFE7FFE7FFE7BDF80C0050B1FFE70598A3
:102640000068049A51695289BDF80C3008F0A8FE60
:10265000FFE7FFE7BDF80C0006B080BD80B5AAB06B
:1026600028902791ADF89A20BDF89A0040060028DE
:1026700040F1E181FFE728980068B0F85000279901
:10268000097800EBC100289909680844B0F80204F1
:102690006FF39F20ADF8920027988069BDF89210E3
:1026A000884207D9FFE7BDF8922027998869801AE8
:1026B000886103E0279900208861FFE727988069F7
:1026C000002840F0D780FFE7FFE72798407808BB55
:1026D000FFE7FFE728980068239028980068B0F883
:1026E000501023980844239023982799097800EBE9
:1026F000C10000F202402290FFE7229908886FF3A0
:102700009F2008802299088840F400400880FFE755
:10271000FFE71DE027984078012818D1FFE7FFE781
:1027200028980068209028980068B0F850102098E9
:102730000844209020982799097800EBC10000F206
:1027400002401F901F9900200880FFE7FFE7FFE786
:10275000FFE7FFE7289800681E902798407808BB9D
:10276000FFE7FFE7289800681C9028980068B0F8F9
:1027700050101C9808441C901C982799097800EB6D
:10278000C10000F206401B90FFE71B9908886FF319
:102790009F2008801B99088840F400400880FFE7CC
:1027A000FFE718E027984078012813D1FFE7289821
:1027B0000068B0F850101E9808441E901E98279983
:1027C000097800EBC10000F206401D901D99002021
:1027D0000880FFE7FFE7FFE72798C07802281FD1AE
:1027E000FFE7FFE7289800682799097830F821006B
:1027F00048F6BF710840ADF86600BDF8660080F08D
:102800002000ADF86600BDF8660048F2800108437C
:1028100028990968279A127821F82200FFE7FFE734
:10282000289827990978FFF73DFDBDF89A004004E4
:1028300000281BD5FFE7FFE7FFE7289800682799E6
:10284000097830F8210048F68F710840ADF864002F
:10285000BDF864004CF28001084328990968279A62
:10286000127821F82200FFE7FFE7FFE700208DF84C
:10287000A700E6E2BDF89A00400400281BD5FFE758
:10288000FFE7FFE7289800682799097830F82100CA
:1028900048F68F710840ADF86200BDF862004CF256
:1028A0008001084328990968279A127821F82200A4
:1028B000FFE7FFE7FFE7279890F82400012840F0A2
:1028C000B880FFE7BDF89220279948691044486115
:1028D000BDF892202799C8691044C86127980169FA
:1028E000006A884209D3FFE7279800692590259A56
:1028F0002799086A801A086216E02798006A40B98A
:10290000FFE7BDF8920025902799002081F8240068
:1029100009E02799002081F824002799096A259168
:1029200027990862FFE7FFE7FFE72798407800282C
:1029300056D1FFE7FFE728980068179028980068AD
:10294000B0F85010179808441790179827990978ED
:1029500000EBC10000F202401690FFE716990888CC
:102960006FF39F200880259830B9FFE716990888F3
:1029700040F40040088030E025983E2815D8FFE755
:10298000FFE72598400815909DF89400C00720B1F6
:10299000FFE7159801301590FFE7159A16990888FA
:1029A00040EA82200880FFE716E0FFE7259840090B
:1029B00015909DF89400C00620B9FFE715980138DE
:1029C0001590FFE7159A1699088840EA822040F48E
:1029D00000400880FFE7FFE7FFE7FFE7FFE71DE0B4
:1029E00027984078012818D1FFE7FFE7289800686A
:1029F000149028980068B0F8501014980844149067
:102A000014982799097800EBC10000F20240139056
:102A1000259813990880FFE7FFE7FFE7FFE728986D
:102A20000068279A51691289BDF8943008F00AFDB0
:102A3000FFE7FFE7DDE128980068B0F8500027992C
:102A4000097800EBC100289909680844B0F8060429
:102A50006FF39F20ADF8920027988069BDF892101F
:102A6000884207D3FFE7BDF8922027998869801A2A
:102A7000886103E0279900208861FFE72798806933
:102A8000002840F0D780FFE7FFE72798407808BB91
:102A9000FFE7FFE728980068129028980068B0F8D0
:102AA000501012980844129012982799097800EB58
:102AB000C10000F202401190FFE7119908886FF3FE
:102AC0009F2008801199088840F400400880FFE7A3
:102AD000FFE71DE027984078012818D1FFE7FFE7BE
:102AE000289800680F9028980068B0F850100F9848
:102AF00008440F900F982799097800EBC10000F265
:102B000002400E900E9900200880FFE7FFE7FFE7E4
:102B1000FFE7FFE7289800680D902798407808BBEA
:102B2000FFE7FFE7289800680B9028980068B0F846
:102B300050100B9808440B900B982799097800EBDC
:102B4000C10000F206400A90FFE70A9908886FF377
:102B50009F2008800A99088840F400400880FFE719
:102B6000FFE718E027984078012813D1FFE728985D
:102B70000068B0F850100D9808440D900D982799F2
:102B8000097800EBC10000F206400C900C9900207F
:102B90000880FFE7FFE7FFE72798C07802281FD1EA
:102BA000FFE7FFE7289800682799097830F82100A7
:102BB00048F6BF710840ADF82200BDF8220080F051
:102BC0002000ADF82200BDF8220048F28001084341
:102BD00028990968279A127821F82200FFE7FFE771
:102BE000289827990978FFF75DFBBDF89A00400403
:102BF00000281BD4FFE7FFE7FFE728980068279924
:102C0000097830F8210048F68F710840ADF82000AF
:102C1000BDF820004CF28001084328990968279AE2
:102C2000127821F82200FFE7FFE7FFE700208DF888
:102C3000A70006E1BDF89A00400400281BD4FFE776
:102C4000FFE7FFE7289800682799097830F8210006
:102C500048F68F710840ADF81E00BDF81E004CF21A
:102C60008001084328990968279A127821F82200E0
:102C7000FFE7FFE7FFE7279890F82400012840F0DE
:102C8000B680FFE7BDF89220279948691044486153
:102C9000BDF892202799C8691044C8612798016936
:102CA000006A884209D3FFE7279800692590259A92
:102CB0002799086A801A086216E02798006A40B9C6
:102CC000FFE7BDF8920025902799002081F82400A5
:102CD00009E02798006A2590279900200862279923
:102CE00081F82400FFE7FFE7FFE7289800680690D7
:102CF00027984078002856D1FFE7FFE7289800681A
:102D0000049028980068B0F8501004980844049083
:102D100004982799097800EBC10000F2064003905F
:102D2000FFE7039908886FF39F200880259830B942
:102D3000FFE70399088840F40040088030E02598B8
:102D40003E2815D8FFE7FFE72598400802909DF838
:102D50009400C00720B1FFE7029801300290FFE71E
:102D6000029A0399088840EA82200880FFE716E06B
:102D7000FFE72598400902909DF89400C00620B90D
:102D8000FFE7029801380290FFE7029A039908884A
:102D900040EA822040F400400880FFE7FFE7FFE7B9
:102DA000FFE7FFE718E027984078012813D1FFE7F5
:102DB00028980068B0F850100698084406900698C5
:102DC0002799097800EBC10000F20640059025988C
:102DD00005990880FFE7FFE7FFE728980068279A32
:102DE00051695289BDF8943008F02CFBFFE7FFE7EA
:102DF000FFE7FFE7289800682799097830F8210055
:102E000048F6BF710840ADF80600BDF8060080F036
:102E10001000ADF80600BDF8060080F02000ADF807
:102E20000600BDF8060048F28001084328990968A9
:102E3000279A127821F82200FFE700208DF8A700DA
:102E4000FFE79DF8A7002AB080BD000082B0019086
:102E50008DF8031001989DF8031001F0070101EBB4
:102E6000810100EBC100D0F86C0102B07047000096
:102E700080B586B004908DF80F10ADF80C208DF859
:102E80000B3000208DF80A009DF80F000006002886
:102E90000FD5FFE704989DF80F1001F0070101EB33
:102EA000810100EBC10010300190019901204870B0
:102EB0000FE004989DF80F1001F0070101EB81016C
:102EC00000EBC10000F5A870019001990020487046
:102ED000FFE79DF80F0000F0070001990870BDF8AA
:102EE0000C006FF3DF20019908619DF80B00019938
:102EF000C8709DF80B00022804D1FFE7019900205B
:102F00000871FFE7FFE7049890F89002012804D1C8
:102F1000FFE702208DF8170015E00499012081F8E1
:102F20009002FFE7FFE704980068019906F022FE8F
:102F3000FFE70499002081F89002FFE79DF80A005E
:102F40008DF81700FFE79DF8170006B080BD000060
:102F500080B586B005908DF8131003920293059802
:102F60009DF8131001F0070101EB810100EBC10096
:102F700000F5A870019003980199486102980199A1
:102F80008861019900200090C861019948709DF8FE
:102F9000130000F007000199087005980068019976
:102FA00007F0EEFC009806B080BD000080B584B04C
:102FB00002908DF807109DF8070000F007000299B5
:102FC0000979884204D9FFE701208DF80F004BE012
:102FD0009DF80700000600280FD5FFE702989DF82E
:102FE000071001F0070101EB810100EBC100103077
:102FF00000900099012048700DE002989DF807109C
:1030000001EB810100EBC10000F5A8700090009970
:1030100000204870FFE70099012088709DF80700A4
:1030200000F0070000990870FFE7029890F89002FE
:10303000012804D1FFE702208DF80F0014E0029967
:10304000012081F89002FFE7FFE7029800680099ED
:1030500007F052FCFFE70299002081F89002FFE799
:1030600000208DF80F00FFE79DF80F0004B080BD31
:1030700080B586B005908DF81310039202930598E1
:103080009DF8131001F0070101EB810100EBC10075
:103090001030019003980199486102980199886164
:1030A0000199012081F824000299019A1162019A84
:1030B00000210091D161019948709DF8130000F042
:1030C00007000199087005980068019907F058FCFD
:1030D000009806B080BD000080B582B001900198D4
:1030E000006808F053F900909DF8010000060028E0
:1030F00004D5FFE7019802F051FEDFE09DF80100E2
:103100004007002810D5FFE701980168B1F8440096
:1031100020F48060A1F84400019800F0D3F90198F0
:10312000002100F00FFAC9E09DF8010040060028D8
:1031300009D5FFE701980168B1F8440020F4804008
:10314000A1F84400BAE09DF801008006002809D5E6
:10315000FFE701980168B1F8440020F40050A1F89D
:103160004400ABE09DF80100C00600282AD5FFE727
:1031700001980168B1F8400020F00400A1F8400077
:1031800001980168B1F8400020F00800A1F8400063
:10319000019890F8C802012808D1FFE701980021A2
:1031A00080F8C8120198FFF705F8FFE7019800F0D2
:1031B000A5F901980168B1F8440020F48050A1F805
:1031C00044007BE09DF80100000700281CD5FFE7C4
:1031D00001980168B1F8400040F00800A1F84000F3
:1031E00001980168B1F8440020F40060A1F844009F
:1031F00001980168B1F8400040F00400A1F84000D7
:10320000019800F003FA59E09DF80000000600283C
:1032100034D5FFE701980168B1F8440020F0800040
:10322000A1F84400019890F8C80210BBFFE701988C
:103230000168B1F8400040F00400A1F84000019896
:103240000168B1F8400040F00800A1F84000019882
:10325000012180F8C81201980068B0F8540000F00D
:10326000F0008008019AC2F8CC020198FEF7A2FF94
:1032700003E0019800F0CAF9FFE71FE09DF80100A4
:10328000800700280CD5FFE701980168B1F84400D9
:1032900020F40070A1F84400019800F049F90DE015
:1032A0009DF80100C00748B1FFE701980168B1F837
:1032B000440020F48070A1F84400FFE702B080BD14
:1032C00080B584B00290029820B9FFE701208DF804
:1032D0000F00BBE0029890F8910240B9FFE7029915
:1032E000002081F89002029800F0B4F8FFE70299FC
:1032F000032081F891020298006807F04FFA00203D
:103300008DF80700FFE79DF80700029909798842C8
:1033100039DAFFE702989DF8071001EB810100EB15
:10332000C101012048749DF80700029900EB80025A
:1033300001EBC201087402989DF8071001EB8101AE
:1033400000EBC1010020C87402999DF8072002EB30
:10335000820201EBC201086202999DF8072002EB8C
:10336000820201EBC201486202999DF8072002EB3C
:10337000820201EBC2018862FFE79DF8070001307D
:103380008DF80700BFE700208DF80700FFE79DF8E4
:1033900007000299097988423EDAFFE702989DF812
:1033A000071001EB810100EBC101002081F8510100
:1033B0009DF80710029A01EB810302EBC30282F829
:1033C000501102999DF8072002EB820201EBC20125
:1033D00081F8530102999DF8072002EB820201EB6C
:1033E000C201C1F8600102999DF8072002EB820238
:1033F00001EBC201C1F8640102999DF8072002EBBC
:10340000820201EBC201C1F86801FFE79DF80700E5
:1034100001308DF80700BAE7029A10685168926887
:1034200007F0A8F90299002008730299012081F899
:1034300091020298807A012804D1FFE70298FEF7F2
:103440009BFEFFE700208DF80F00FFE79DF80F00BF
:1034500004B080BD80B598B0179002A85421FDF744
:103460005AF81798006845F60041C4F200018842F6
:1034700026D1FFE74FF4005002900020119002A8DF
:1034800000F0C0F918B1FFE7FEF7E2FAFFE7FFE747
:1034900041F25800C4F20200016841F400010160E9
:1034A000006800F4000001900198FFE714200090EC
:1034B00000221146FEF740FE0098FEF733FEFFE7BC
:1034C00018B080BD80B582B0019001208DF8030056
:1034D00001984079022803D0FFE7FEF7B9FAFFE729
:1034E0000198D0F8D8029DF8031005F07FFE0198EE
:1034F000D0F8D80205F0F0FD02B080BD80B582B0F2
:1035000001900198407A58B1FFE74EF61051CEF283
:103510000001086820F00600086002F0D7FFFFE70E
:103520000198D0F8D80205F027FE02B080BD000057
:1035300080B582B001900198D0F8D80205F02EFE37
:1035400002B080BD80B584B002908DF80710FFE70F
:10355000029890F89002012804D1FFE702208DF82C
:103560000F0019E00299012081F89002FFE7FFE7C0
:103570009DF8070002990873029800689DF80710EB
:1035800007F050FFFFE70299002081F89002FFE763
:1035900000208DF80F00FFE79DF80F0004B080BDFC
:1035A00080B582B001900199D1F8D80201F5267159
:1035B00005F046FE02B080BD80B582B00090FFE706
:1035C000009890F89002012804D1FFE702208DF8BE
:1035D000070017E00099012081F89002FFE7FFE75C
:1035E0000098006807F0BAFE0098006807F0B6F887
:1035F000FFE70099002081F89002FFE700208DF896
:103600000700FFE79DF8070002B080BD80B582B0DB
:1036100001900198D0F8D80205F094FE0198407A04
:1036200048B1FFE74EF61051CEF20001086840F0B5
:1036300006000860FFE702B080BD000085B003907F
:10364000039800285ED1FFE747F20000C4F20000B3
:10365000006800F4C060B0F5806F49D1FFE747F221
:103660008001C4F20001086820F48070086047F20D
:103670000002C4F200021168012060F34A211160C7
:1036800040F22001C2F200010968322251434DF696
:103690008362C4F21B32A1FB022100EB9140029035
:1036A000FFE747F21400C4F200000168002049055A
:1036B0000029019006D5FFE70298002818BF0120D5
:1036C0000190FFE70198C00720B1FFE70298013899
:1036D0000290E6E747F21400C4F2000000684005DB
:1036E000002804D5FFE703208DF813007CE008E0F4
:1036F00047F28001C4F20001086820F4807008607D
:10370000FFE76DE00398B0F5007F5ED1FFE747F279
:103710000000C4F20000006800F4C060B0F5806FE3
:1037200049D1FFE747F28001C4F20001086840F484
:103730008070086047F20002C4F2000211680120A4
:1037400060F34A21116040F22001C2F200010968D1
:10375000322251434DF68362C4F21B32A1FB022197
:1037600000EB91400290FFE747F21400C4F2000022
:103770000168002049050029009006D5FFE702985E
:10378000002818BF01200090FFE70098C00720B173
:10379000FFE7029801380290E6E747F21400C4F20E
:1037A000000000684005002804D5FFE703208DF8DD
:1037B000130019E008E047F28001C4F20001086834
:1037C00040F480700860FFE709E047F20001C4F2AE
:1037D00000010868022262F34A200860FFE7FFE761
:1037E00000208DF81300FFE79DF8130005B0704727
:1037F00047F20801C4F20001086840F48040086004
:103800007047000080B586B0059000208DF80B0051
:103810008DF80A00059880780007002840F1B580EF
:10382000FFE700208DF8090041F25800C4F20200C1
:103830000068C000002813D4FFE7FFE741F25800FA
:10384000C4F20200016841F080510160006800F09C
:10385000805001900198FFE701208DF80900FFE7F3
:1038600047F20001C4F20001086840F4807008606B
:10387000FEF79EFB0390FFE747F20000C4F2000052
:103880000068C00500280CD4FFE7FEF791FB039900
:10389000401A032804D3FFE703208DF80B0000E053
:1038A000EAE79DF80B0000285BD1FFE741F29000AA
:1038B000C4F20200006800F4407004900498C8B19B
:1038C000FFE704980599096D884213D0FFE741F29C
:1038D0009001C4F20201086820F440700490086866
:1038E00040F480300860086820F480300860049854
:1038F0000860FFE79DF81000C007E0B1FFE7FEF7A2
:1039000057FB0390FFE741F29000C4F20200006809
:10391000800700280ED4FFE7FEF74AFB0399401A00
:1039200041F28931884204D3FFE703208DF80B0070
:1039300000E0E8E7FFE79DF80B0060B9FFE741F220
:103940009001C4F20201086820F44070059A126DDB
:103950001043086004E09DF80B008DF80A00FFE7B3
:1039600004E09DF80B008DF80A00FFE79DF80900C0
:10397000012809D1FFE741F25801C4F202010868A9
:1039800020F080500860FFE7FFE705980078C00747
:1039900060B1FFE741F28801C4F20201086820F03B
:1039A0000300059A526810430860FFE70598007805
:1039B000800700280CD5FFE741F28801C4F202011C
:1039C000086820F00C00059A926810430860FFE731
:1039D00005980078400700280CD5FFE741F28801E0
:1039E000C4F20201086820F03000059AD268104342
:1039F0000860FFE705980078000700280CD5FFE76E
:103A000041F28801C4F20201086820F0C000059A62
:103A1000126910430860FFE705980078C006002887
:103A20000CD5FFE741F28801C4F20201086820F4D6
:103A30004070059A526910430860FFE705980078C6
:103A4000800600280CD5FFE741F28801C4F202018C
:103A5000086820F44060059A926910430860FFE707
:103A600005980078400600280CD5FFE741F2880150
:103A7000C4F20201086820F44050059AD26910434C
:103A80000860FFE705980078000600280CD5FFE7DE
:103A900041F28801C4F20201086820F44040059A0E
:103AA000126A10430860FFE705984078C00760B1CC
:103AB000FFE741F28801C4F20201086820F44030B7
:103AC000059A526A10430860FFE7059880788007DE
:103AD00000280CD5FFE741F29C01C4F202010868FE
:103AE00020F00300059A926A10430860FFE70598EA
:103AF0004078800700280CD5FFE741F28801C4F226
:103B00000201086820F44020059AD26A1043086038
:103B1000FFE705984078400700281BD5FFE741F2F2
:103B20008801C4F20201086820F44010059A126B63
:103B3000104308600598006BB0F5801F09D1FFE7BE
:103B400041F20C01C4F20201086840F480100860E0
:103B5000FFE7FFE705984078000700281BD5FFE73F
:103B600041F28801C4F20201086820F44000059A7D
:103B7000526B104308600598406BB0F5800F09D177
:103B8000FFE741F20C01C4F20201086840F4801022
:103B90000860FFE7FFE705984078C00600281BD5BE
:103BA000FFE741F28801C4F20201086820F040708A
:103BB000059A926B104308600598806BB0F1807F86
:103BC00009D1FFE741F20C01C4F20201086840F498
:103BD00080100860FFE7FFE705984078800600281E
:103BE0001BD5FFE741F28801C4F20201086820F00A
:103BF0004060059AD26B104308600598C06BB0F125
:103C0000006F09D1FFE741F20C01C4F2020108681C
:103C100040F480100860FFE7FFE705984078400611
:103C200000281BD5FFE741F28801C4F202010868B1
:103C300020F04060059A126C104308600598006CF3
:103C4000B0F1006F09D1FFE741F20C01C4F20201AB
:103C5000086840F480100860FFE7FFE705984078A7
:103C6000000600281BD5FFE741F28801C4F20201DB
:103C7000086820F04050059A526C1043086005987F
:103C8000406CB0F1805F09D1FFE741F20C01C4F252
:103C90000201086840F480300860FFE7FFE70598FC
:103CA0008078C007D8B1FFE741F28801C4F2020171
:103CB000086820F04040059A926C1043086005980F
:103CC000806CB0F1804F09D1FFE741F20C01C4F2E2
:103CD0000201086840F480300860FFE7FFE70598BC
:103CE0008078400700281BD5FFE741F29C01C4F211
:103CF0000201086820F44010059AD26C1043086055
:103D00000598C06CB0F5001F09D1FFE741F20C0126
:103D1000C4F20201086840F480100860FFE7FFE782
:103D20009DF80A0006B080BD80B586B0049003916E
:103D300000200090049820B9FFE701208DF81700BB
:103D400081E1039842F20001C4F20201096801F026
:103D50000F01884216D9FFE742F20000C4F20200C8
:103D6000016821F00F01039A11430160006800F01F
:103D70000F000399884204D0FFE701208DF8170057
:103D800061E1FFE704980078C007002800F0A380F5
:103D9000FFE704984068032839D1FFE741F20000AB
:103DA000C4F2020000688001002804D4FFE701206B
:103DB0008DF8170047E102F01BFB019001984BF2D0
:103DC0000141C0F2C441884220D3FFE741F208001C
:103DD000C4F20200006810F0F00F0AD0FFE7049868
:103DE00000788007002810D5FFE70498806860B944
:103DF000FFE741F20801C4F202010868082262F3F9
:103E00000710086080200090FFE7FFE738E0049883
:103E1000406802280ED1FFE741F20000C4F2020020
:103E200000688003002804D4FFE701208DF8170004
:103E300009E10DE041F20000C4F202000068400513
:103E4000002804D4FFE701208DF81700FBE0FFE70E
:103E500000F056F9019001984BF20141C0F2C441C3
:103E600088420CD3FFE741F20801C4F2020108685E
:103E7000082262F30710086080200090FFE7FFE748
:103E800041F20801C4F20201086820F00300049A1C
:103E9000526810430860FEF78BF80290FFE741F28A
:103EA0000800C4F20200006800F00C0004994968A0
:103EB000B0EB810F0ED0FFE7FEF77AF80299401AB7
:103EC00041F28931884204D3FFE703208DF81700BF
:103ED000B9E0E4E7FFE704980078800700282CD5D4
:103EE000FFE7049800784007002809D5FFE741F272
:103EF0000801C4F20201086840F4E0600860FFE7CE
:103F000004980078000700280BD5FFE741F208016C
:103F1000C4F20201086840F4E06020F460500860D8
:103F2000FFE741F20801C4F20201086820F0F00046
:103F3000049A9268104308600DE00098802809D127
:103F4000FFE741F20801C4F20201086820F0F00026
:103F50000860FFE7FFE7039842F20001C4F20201A4
:103F6000096801F00F01884228D2FFE742F2000100
:103F7000C4F20201086820F00F00039A10430860A1
:103F8000FEF716F80290FFE742F20000C4F20200CA
:103F9000006800F00F00039988420ED0FFE7FEF79B
:103FA00007F80299401A41F28931884204D3FFE7A9
:103FB00003208DF8170046E0E6E7FFE70498007855
:103FC000400700280CD5FFE741F20801C4F20201C6
:103FD000086820F4E060049AD26810430860FFE7A4
:103FE00004980078000700280DD5FFE741F208018A
:103FF000C4F20201086820F46050049A126940EA91
:10400000C2000860FFE700F07BF841F20801C4F24B
:1040100002010968C9B20A094CF69811C0F60001FC
:10402000895C01F01F01C84040F22001C2F200018A
:10403000086040F28010C2F200000068FDF7E4FF63
:104040008DF81700FFE79DF8170006B080BD00004F
:1040500082B00190009101990F20086041F20800A0
:10406000C4F20200016801F00301019A5160016885
:1040700001F0F001019A9160016801F4E061019A98
:10408000D160006800F46050C0080199086142F2F4
:104090000000C4F20200006800F00F000099086000
:1040A00002B0704740F22000C2F200000068704782
:1040B00080B5FFF7F7FF41F20801C4F20201096879
:1040C000C1F302224CF6A811C0F60001895C01F090
:1040D0001F01C84080BD000080B5FFF7E3FF41F23B
:1040E0000801C4F202010968C1F3C2224CF6A8110A
:1040F000C0F60001895C01F01F01C84080BD0000CE
:1041000086B041F20800C4F20200006800F00C0022
:10411000042806D1FFE742F20040C0F2F40001900B
:1041200069E041F20800C4F20200006800F00C00EF
:10413000082806D1FFE741F20020C0F27A00019082
:1041400058E041F20800C4F20200006800F00C00E0
:104150000C284BD1FFE741F20C00C4F202000168C9
:1041600001F0030104910068C1B2012000EB1110BD
:10417000029004980090022815D0FFE700980328C9
:1041800012D1FFE7029941F20020C0F27A00B0FBA1
:10419000F1F041F20C01C4F202010968C1F30621F9
:1041A0004843059011E0FFE7029942F20040C0F257
:1041B000F400B0FBF1F041F20C01C4F20201096815
:1041C000C1F3062148430590FFE741F20C00C4F219
:1041D0000200006800F0C061022000EB1160039053
:1041E00005980399B0FBF1F0019002E000200190E6
:1041F000FFE7FFE7FFE7019806B07047B0B588B06A
:104200000690069820B9FFE701208DF81F00CCE347
:1042100006980078C007002800F09B80FFE741F275
:104220000800C4F20200006800F00C00049041F2A3
:104230000C00C4F20200006800F003000390049830
:104240000C2804D1FFE70398032804D0FFE7049863
:10425000082812D1FFE741F20000C4F20200006812
:104260008003002808D5FFE70698406820B9FFE7DB
:1042700001208DF81F0098E36AE0FFE70698406888
:10428000B0F5803F09D1FFE741F20001C4F202011D
:10429000086840F48030086020E006984068B0F577
:1042A000A02F0DD1FFE741F20001C4F2020108681E
:1042B00040F480200860086840F4803008600CE01A
:1042C00041F20001C4F20201086820F48030086065
:1042D000086820F480200860FFE7FFE7FFE7069802
:1042E0004068D0B1FFE7FDF763FE0590FFE741F2BC
:1042F0000000C4F202000068800300280CD4FFE72D
:10430000FDF756FE0599401A652804D3FFE7032000
:104310008DF81F0049E3EAE719E0FDF749FE059033
:10432000FFE741F20000C4F20200006880030028A9
:104330000CD5FFE7FDF73CFE0599401A652804D32C
:10434000FFE703208DF81F002FE3EAE7FFE7FFE711
:10435000FFE7069800788007002840F19F80FFE77C
:1043600041F20800C4F20200006800F00C00049062
:1043700041F20C00C4F20200006800F00300039058
:1043800004980C2804D1FFE70398022804D0FFE723
:10439000049804282CD1FFE741F20000C4F2020087
:1043A00000684005002808D5FFE70698C06820B9D6
:1043B000FFE701208DF81F00F7E241F20401C4F28B
:1043C0000201086820F0FE40069A126940EA026085
:1043D000086040F28010C2F200000068FDF714FE91
:1043E00020B1FFE701208DF81F00DEE2FFE754E077
:1043F0000698C06870B3FFE741F20001C4F2020101
:10440000086840F480700860FDF7D2FD0590FFE772
:1044100041F20000C4F202000068400500280CD4FC
:10442000FFE7FDF7C5FD0599401A032804D3FFE710
:1044300003208DF81F00B8E2EAE741F20401C4F25C
:104440000201086820F0FE40069A126940EA026004
:10445000086021E041F20001C4F20201086820F482
:1044600080700860FDF7A4FD0590FFE741F20000B1
:10447000C4F202000068400500280CD5FFE7FDF7F4
:1044800097FD0599401A032804D3FFE703208DF810
:104490001F008AE2EAE7FFE7FFE7FFE706980078F8
:1044A0000007002849D5FFE70698406910B3FFE7E9
:1044B00041F29401C4F20201086840F00100086072
:1044C000FDF776FD0590FFE741F29400C4F202008B
:1044D0000068800700280CD4FFE7FDF769FD059907
:1044E000401A032804D3FFE703208DF81F005CE285
:1044F000EAE721E041F29401C4F20201086820F0E9
:1045000001000860FDF754FD0590FFE741F29400BB
:10451000C4F202000068800700280CD5FFE7FDF711
:1045200047FD0599401A032804D3FFE703208DF8BF
:104530001F003AE2EAE7FFE7FFE706980078400746
:10454000002840F1C680FFE700208DF80B0041F203
:104550005800C4F202000068C000002813D4FFE72E
:10456000FFE741F25800C4F20200016841F08051B7
:104570000160006800F0805001900198FFE7012081
:104580008DF80B00FFE747F20000C4F2000000685E
:10459000C005002822D4FFE747F20001C4F2000161
:1045A000086840F480700860FDF702FD0590FFE7A1
:1045B00047F20000C4F200000068C00500280CD4D7
:1045C000FFE7FDF7F5FC0599401A032804D3FFE740
:1045D00003208DF81F00E8E1EAE7FFE7FFE7069810
:1045E0008068012809D1FFE741F29001C4F202017D
:1045F000086840F0010008601FE006988068052800
:104600000DD1FFE741F29001C4F20201086840F0C9
:1046100004000860086840F0010008600CE041F206
:104620009001C4F20201086820F0010008600868E7
:1046300020F004000860FFE7FFE7FFE706988068C6
:10464000E0B1FFE7FDF7B4FC0590FFE741F2900011
:10465000C4F202000068800700280ED4FFE7FDF7CF
:10466000A7FC0599401A41F28931884204D3FFE73B
:1046700003208DF81F0098E1E8E71BE0FDF798FCA8
:104680000590FFE741F29000C4F202000068800745
:1046900000280ED5FFE7FDF78BFC0599401A41F283
:1046A0008931884204D3FFE703208DF81F007CE1A5
:1046B000E8E7FFE79DF80B00012809D1FFE741F289
:1046C0005801C4F20201086820F080500860FFE73A
:1046D000FFE7069800788006002849D5FFE706988E
:1046E000806910B3FFE741F29801C4F20201086843
:1046F00040F001000860FDF75BFC0590FFE741F228
:104700009800C4F202000068800700280CD4FFE77C
:10471000FDF74EFC0599401A032804D3FFE7032058
:104720008DF81F0041E1EAE721E041F29801C4F26F
:104730000201086820F001000860FDF739FC0590CF
:10474000FFE741F29800C4F20200006880070028E9
:104750000CD5FFE7FDF72CFC0599401A032804D37C
:10476000FFE703208DF81F001FE1EAE7FFE7FFE7FF
:104770000698C069002800F01481FFE741F20800A4
:10478000C4F20200006800F00C000C2800F0B080B9
:10479000FFE70698C06902287CD1FFE741F20001DB
:1047A000C4F20201086820F080700860FDF700FC88
:1047B0000590FFE741F20000C4F2020000688001AA
:1047C00000280CD5FFE7FDF7F3FB0599401A0328F5
:1047D00004D3FFE703208DF81F00E6E0EAE741F28B
:1047E0000C01C4F20201086848F20C02C0F29F12E8
:1047F0001040DDF818C0DCF82020DCF82450DCF88C
:1048000028E0DCF82C306FF00F0404EB0514224391
:1048100042EA0E22DCF8304040F2000ECFF6E07E95
:104820000EEA045EAEF5001E42EA0E02DCF834E049
:104830004FF07E4C0CEA0E6C0CF17E4C42EA0C02FE
:1048400042EAC3621043086041F20002C4F202026D
:10485000106840F080701060086840F08070086058
:10486000FDF7A6FB0590FFE741F20000C4F202004D
:104870000068800100280CD4FFE7FDF799FB05993B
:10488000401A032804D3FFE703208DF81F008CE0B3
:10489000EAE72CE041F20001C4F20201086820F0CE
:1048A00080700860FDF784FB0590FFE741F200008F
:1048B000C4F202000068800100280CD5FFE7FDF774
:1048C00077FB0599401A032804D3FFE703208DF8EE
:1048D0001F006AE0EAE741F20C01C4F20201086835
:1048E0004FF6FC72CFF6EE6210400860FFE757E02B
:1048F0000698C069012804D1FFE701208DF81F0048
:1049000053E041F20C00C4F20200006803900398E7
:1049100000F003000699096A88423BD1FFE703983B
:1049200000F0F00006994A6A6FF00F0101EB0211E6
:1049300088422FD1FFE7039800F4FE400699896A68
:10494000B0EB012F26D1FFE7039800F078400699DD
:10495000C96AB0EBC16F1DD1FFE7039800F4C00036
:1049600006990A6B0021CFF6E07101EA0251A1F528
:10497000001188420ED1FFE7039800F0C06006994D
:104980004A6B4FF07E4101EA026101F17E418842AB
:1049900004D0FFE701208DF81F0006E0FFE7FFE7E6
:1049A000FFE700208DF81F00FFE79DF81F0008B00B
:1049B000B0BD000081B0009001B0704781B00090A0
:1049C00001B0704781B0009001B0704781B0009095
:1049D00001B0704781B0009001B0704781B0009085
:1049E00001B0704781B0009001B0704780B582B0CF
:1049F0000090009820B9FFE701208DF8070045E0FE
:104A0000009890F83D0040B9FFE70099002081F838
:104A10003C00009800F03EF8FFE70099022081F882
:104A20003D00009951F8040B01F0A2FD009901200E
:104A300081F84800FFE70099012081F83E000099C5
:104A400081F83F00009981F84000009981F8410009
:104A5000009981F84200009981F84300FFE7FFE7E1
:104A60000099012081F84400009981F845000099DF
:104A700081F84600009981F84700FFE7009901207E
:104A800081F83D0000208DF80700FFE79DF8070042
:104A900002B080BD82B001900198006844F6000128
:104AA000C4F20101884210D1FFE7FFE741F2600044
:104AB000C4F20200016841F480210160006800F442
:104AC000802000900098FFE7FFE702B070470000E9
:104AD00083B00190019890F83D00012804D0FFE7D1
:104AE00001208DF80B006CE00199022081F83D0057
:104AF0000198006842F60041C4F2010188423CD0AE
:104B0000FFE701980068B0F1804F36D0FFE70198C9
:104B1000006840F20041C4F2000188422DD0FFE756
:104B20000198006840F60001C4F20001884224D0D8
:104B3000FFE70198006840F60041C4F20001884296
:104B40001BD0FFE70198006843F20041C4F2010165
:104B5000884212D0FFE70198006844F20001C4F2D5
:104B60000101884209D0FFE70198006845F2000181
:104B7000C4F20101884219D1FFE7019800688068FA
:104B80000721C0F2010108400090009806280CD0CF
:104B9000FFE70098B0F5803F07D0FFE70198016874
:104BA000086840F001000860FFE706E0019801682E
:104BB000086840F001000860FFE700208DF80B0056
:104BC000FFE79DF80B0003B07047000083B0019031
:104BD000019890F83D00012804D0FFE701208DF8EE
:104BE0000B0072E00199022081F83D0001980168F4
:104BF000C86840F00100C8600198006842F60041B2
:104C0000C4F2010188423CD0FFE701980068B0F18E
:104C1000804F36D0FFE70198006840F20041C4F2AF
:104C2000000188422DD0FFE70198006840F600019E
:104C3000C4F20001884224D0FFE70198006840F6E2
:104C40000041C4F2000188421BD0FFE701980068D0
:104C500043F20041C4F20101884212D0FFE70198FB
:104C6000006844F20001C4F20101884209D0FFE764
:104C70000198006845F20001C4F20101884219D18F
:104C8000FFE70198006880680721C0F20101084031
:104C90000090009806280CD0FFE70098B0F5803F00
:104CA00007D0FFE701980168086840F0010008603C
:104CB000FFE706E001980168086840F0010008601D
:104CC000FFE700208DF80B00FFE79DF80B0003B015
:104CD0007047000081B0009001B0704780B584B08B
:104CE000039003980068C068029003980068006908
:104CF00001909DF804008007002824D5FFE79DF867
:104D00000800800700281DD5FFE7039801686FF0B1
:104D10000200086103990120087703980068806900
:104D2000800720B1FFE70398FFF7D4FF06E0039860
:104D300000F054F9039800F055F9FFE703990020BB
:104D40000877FFE7FFE79DF804004007002825D516
:104D5000FFE79DF80800400700281ED5FFE70398ED
:104D600001686FF004000861039902200877039836
:104D70000068806910F4407F04D0FFE70398FFF7D4
:104D8000A9FF06E0039800F029F9039800F02AF93A
:104D9000FFE7039900200877FFE7FFE79DF804008D
:104DA0000007002824D5FFE79DF808000007002829
:104DB0001DD5FFE7039801686FF0080008610399AB
:104DC0000420087703980068C069800720B1FFE7D6
:104DD0000398FFF77FFF06E0039800F0FFF80398C1
:104DE00000F000F9FFE7039900200877FFE7FFE7ED
:104DF0009DF80400C006002825D5FFE79DF80800AF
:104E0000C00600281ED5FFE7039801686FF0100068
:104E1000086103990820087703980068C06910F4B6
:104E2000407F04D0FFE70398FFF754FF06E00398A4
:104E300000F0D4F8039800F0D5F8FFE703990020BC
:104E40000877FFE7FFE79DF80400C00778B1FFE7A8
:104E50009DF80800C00748B1FFE7039801686FF0AC
:104E600001000861039800F0C1F8FFE7FFE701982F
:104E700000F08000802806D0FFE79DF8050080063E
:104E8000002810D5FFE79DF808000006002809D586
:104E9000FFE7039801686FF4025008610398FFF779
:104EA0008DFDFFE7FFE79DF80500C00780B1FFE734
:104EB0009DF808000006002809D5FFE7039801685F
:104EC0006FF4807008610398FFF774FDFFE7FFE758
:104ED0009DF804004006002810D5FFE79DF8080063
:104EE0004006002809D5FFE7039801686FF04000ED
:104EF0000861039800F08CF8FFE7FFE79DF80400D5
:104F00008006002810D5FFE79DF8080080060028DD
:104F100009D5FFE7039801686FF020000861039846
:104F2000FFF750FDFFE7FFE79DF80600C0060028E9
:104F300010D5FFE79DF80A00C006002809D5FFE755
:104F4000039801686FF4801008610398FFF742FD31
:104F5000FFE7FFE79DF806008006002810D5FFE771
:104F60009DF80A008006002809D5FFE7039801682C
:104F70006FF4001008610398FFF728FDFFE7FFE7D3
:104F80009DF806004006002810D5FFE79DF80A00AE
:104F90004006002809D5FFE7039801686FF48000F8
:104FA00008610398FFF71AFDFFE7FFE79DF8060089
:104FB0000006002810D5FFE79DF80A00000600282B
:104FC00009D5FFE7039801686FF4000008610398B2
:104FD000FFF708FDFFE7FFE704B080BD81B0009058
:104FE00001B0704781B0009001B0704780B582B0C9
:104FF00001900198006845F20001C4F20101884265
:1050000003D1FFE7FCF7DAFFFFE702B080BD000045
:1050100081B0009001B0704783B00190FFE7019824
:1050200090F88400012804D1FFE702208DF80B00DE
:105030002CE00199012081F88400FFE7FFE7019946
:105040002420C1F888000198006800680090019849
:105050000168086820F001000860009820F0005006
:10506000009001990020486600980199096808603D
:1050700001992020C1F88800FFE70199002081F8FC
:105080008400FFE700208DF80B00FFE79DF80B0080
:1050900003B0704780B586B004900391ADF80A2044
:1050A00000208DF809000498D0F88C0020283DD10C
:1050B000FFE7039820B1FFE7BDF80A0020B9FFE73A
:1050C00001208DF8170035E004990120C866049985
:1050D0000020086704980399BDF80A2002F0C4FC78
:1050E0000498C06E012818D1FFE7049801681020C9
:1050F0000862FFE7FFE70498006850E8000F40F0FF
:1051000010000190FFE701990498026842E800103E
:105110000028F0D1FFE7FFE703E001208DF8090048
:10512000FFE79DF809008DF8170003E002208DF8D5
:105130001700FFE79DF8170006B080BD82B0019010
:10514000ADF8021002B0704781B0009001B0704716
:1051500080B584B002900191FFE7029890F8840036
:10516000012804D1FFE702208DF80F0032E00299F8
:10517000012081F88400FFE7FFE702992420C1F8AD
:10518000880002980068006800900298016808682A
:1051900020F00100086002980068806820F06060DC
:1051A00001990843029909688860029801F0D4FACD
:1051B000009802990968086002992020C1F88800C7
:1051C000FFE70299002081F88400FFE700208DF8B6
:1051D0000F00FFE79DF80F0004B080BD80B584B0DC
:1051E00002900191FFE7029890F88400012804D111
:1051F000FFE702208DF80F0032E00299012081F8CC
:105200008400FFE7FFE702992420C1F88800029894
:1052100000680068009002980168086820F00100AA
:10522000086002980068806820F060400199084397
:10523000029909688860029801F08EFA0098029934
:105240000968086002992020C1F88800FFE70299E8
:10525000002081F88400FFE700208DF80F00FFE7B1
:105260009DF80F0004B080BD81B0009001B0704780
:1052700081B0009001B0704781B0009001B07047DC
:1052800080B590B00F900F980068C0690E900F988D
:10529000006800680D900F98006880680C900E9868
:1052A00040F60F0108400B900B98E0B9FFE79DF81E
:1052B00038008006002815D5FFE79DF834008006E9
:1052C000002806D4FFE79DF83300C006002809D562
:1052D000FFE70F98406F20B1FFE70F98416F8847B5
:1052E000FFE796E2FFE70B98002800F00C81FFE74C
:1052F0000C980121C1F20001084209D1FFE70D9885
:1053000040F22011C0F20041084200F0FC80FFE7AB
:105310009DF83800C00788B1FFE79DF83500C00749
:1053200060B1FFE70F980168012008620F99D1F87A
:10533000900040F00100C1F89000FFE79DF83800B0
:105340008007002811D5FFE79DF83000C00760B145
:10535000FFE70F980168022008620F99D1F89000CA
:1053600040F00400C1F89000FFE79DF838004007C6
:10537000002811D5FFE79DF83000C00760B1FFE7B6
:105380000F980168042008620F99D1F8900040F04E
:105390000200C1F89000FFE79DF8380000070028E0
:1053A00019D5FFE79DF834008006002807D4FFE7F1
:1053B0000C980121C1F2000108420CD0FFE70F98C0
:1053C0000168082008620F99D1F8900040F00800A9
:1053D000C1F89000FFE79DF839000007002813D5B9
:1053E000FFE79DF83700400700280DD5FFE70F982D
:1053F00001684FF4006008620F99D1F8900040F006
:105400002000C1F89000FFE70F98D0F89000002826
:1054100078D0FFE79DF838008006002815D5FFE713
:105420009DF834008006002806D4FFE79DF833007D
:10543000C006002809D5FFE70F98406F20B1FFE7AD
:105440000F98416F8847FFE7FFE70F98D0F890006B
:105450000A900F980068806800F04000402806D04D
:10546000FFE79DF8280010F0280F42D0FFE70F98C3
:1054700001F00EFB0F98006880684006002833D5C5
:10548000FFE7FFE7FFE70F98006850E8020F20F002
:1054900040000990FFE709990F98026842E802105E
:1054A0000028F0D1FFE7FFE70F98D0F88000B0B1F7
:1054B000FFE70F98D0F8801046F67120C0F6000084
:1054C00088630F98D0F88000FCF746FB30B1FFE707
:1054D0000F98D0F88000816B8847FFE703E00F98B2
:1054E000FFF7CAFEFFE703E00F98FFF7C5FEFFE7EF
:1054F00007E00F98FFF7C0FE0F990020C1F8900059
:10550000FFE7FFE785E10F98C06E012840F0228198
:10551000FFE79DF83800C006002840F11B81FFE737
:105520009DF83400C006002840F11481FFE70F9871
:105530000168102008620F98006880684006002803
:1055400040F1A680FFE70F98D0F88000006840681F
:10555000ADF82200BDF8220000287CD0FFE7BDF89E
:1055600022000F99B1F85C10884274DAFFE7BDF8A9
:1055700022000F99A1F85E000F98D0F88000006813
:1055800000688006002859D4FFE7FFE7FFE70F987F
:10559000006850E8000F20F480700790FFE707993B
:1055A0000F98026842E800100028F0D1FFE7FFE7FB
:1055B000FFE7FFE70F98006850E8020F20F00100B6
:1055C0000690FFE706990F98026842E8021000284B
:1055D000F0D1FFE7FFE7FFE7FFE70F98006850E82B
:1055E000020F20F040000590FFE705990F98026830
:1055F00042E802100028F0D1FFE7FFE70F992020D2
:10560000C1F88C000F990020C866FFE7FFE70F98EC
:10561000006850E8000F20F010000490FFE70499A4
:105620000F98026842E800100028F0D1FFE7FFE77A
:105630000F98D0F88000FCF741FAFFE70F9902209D
:1056400008670F98B0F85C10B0F85E20891A89B22C
:10565000FFF774FD1BE0BDF822000F99B1F85C1054
:10566000884213D1FFE70F98D0F8800000680068E7
:105670008006002809D5FFE70F99022008670F98D8
:10568000B0F85C10FFF75AFDFFE7FFE7FFE7C0E067
:105690000F99B1F85C00B1F85E10401AADF80E0039
:1056A0000F98B0F85E00002853D0FFE7BDF80E0059
:1056B00000284ED0FFE7FFE7FFE70F98006850E8AB
:1056C000000F20F490700290FFE702990F98026893
:1056D00042E800100028F0D1FFE7FFE7FFE7FFE70F
:1056E0000F98006850E8020F4FF6FE71CEF6FF717A
:1056F00008400190FFE701990F98026842E8021004
:105700000028EDD1FFE7FFE70F992020C1F88C00BA
:105710000F990020C8660F994867FFE7FFE70F98C9
:10572000006850E8000F20F010000090FFE700999B
:105730000F98026842E800100028F0D1FFE7FFE769
:105740000F99022008670F98BDF80E10FFF7F6FCBE
:10575000FFE75EE09DF83A00C00600280FD5FFE79E
:105760009DF832004006002809D5FFE70F98016830
:105770004FF4801008620F98FFF77AFD49E09DF81A
:1057800038000006002815D5FFE79DF83400000614
:10579000002806D4FFE79DF832000006002809D54E
:1057A000FFE70F98806F20B1FFE70F98816F884760
:1057B000FFE72EE09DF83800400600280AD5FFE7F5
:1057C0009DF834004006002804D5FFE70F9801F04B
:1057D000AFF91EE09DF83A00000600280AD5FFE761
:1057E0009DF837004006002804D5FFE70F98FFF723
:1057F0003BFD0EE09DF83B00C00750B1FFE79DF870
:1058000037000006002804D5FFE70F98FFF79CFC3F
:10581000FFE710B080BD000080B582B00090009816
:1058200020B9FFE701208DF8070046E00098806965
:1058300008B1FFE700E0FFE70098D0F8880040B922
:10584000FFE70099002081F88400009800F03AF802
:10585000FFE700992420C1F88800009801680868D3
:1058600020F0010008600098806A20B1FFE70098EE
:1058700000F0B6FFFFE7009801F004FE012804D114
:10588000FFE701208DF8070017E0009801684868DD
:1058900020F49040486000980168886820F02A0051
:1058A000886000980168086840F00100086000986E
:1058B00001F03AF88DF80700FFE79DF8070002B005
:1058C00080BD000080B5A0B01F9000201E901D90EC
:1058D0001C901B901A9005A85421FAF71CFE1F98E3
:1058E000006843F60001C4F20101884244D1FFE799
:1058F000012005900020069005A8FDF783FF18B150
:10590000FFE7FCF7A5F8FFE7FFE741F26000C4F20C
:105910000200016841F480410160006800F48040A9
:1059200004900498FFE7FFE741F24C00C4F2020044
:10593000016841F001010160006800F0010003907E
:105940000398FFE74FF4C0601A9002201B900020DC
:1059500001901C901D9007201E904FF090401AA9B6
:10596000FCF75CF9019A252002901146FCF7E4FB54
:105970000298FCF7D7FBFFE720B080BD81B0009014
:1059800001B0704780B58AB008900791ADF81A2031
:1059900005930898D0F88800202840F08780FFE71A
:1059A000079820B1FFE7BDF81A0020B9FFE70120F2
:1059B0008DF827007EE008990020C1F89000089932
:1059C0002120C1F88800FCF7F3FA0290BDF81A0014
:1059D0000899A1F85400BDF81A000899A1F85600DA
:1059E00008988068B0F5805F09D1FFE708980069E2
:1059F00028B9FFE7002004900798039004E0079877
:105A0000049000200390FFE7FFE70898B0F85600E5
:105A100088B3FFE70898029B05996A4611608021C8
:105A2000002202F033F940B1FFE708992020C1F8C5
:105A3000880003208DF827003CE0049858B9FFE760
:105A4000039800886FF35F200899096888620398BB
:105A50000230039008E00498007808990968886289
:105A6000049801300490FFE70899B1F85600013816
:105A7000A1F85600C9E70898029B05996A4611608B
:105A80004021002202F002F940B1FFE708992020EE
:105A9000C1F8880003208DF827000BE0089920202A
:105AA000C1F8880000208DF8270003E002208DF85F
:105AB0002700FFE79DF827000AB080BD81B0009065
:105AC00001B07047FFE7FEE783B0029001918DF8C7
:105AD000032000208DF802008DF80200FFE79DF8FA
