:020000040800F2
:1000000008220020E5020008D9270008ED26000894
:10001000D5270008ED030008314700080000000064
:10002000000000000000000000000000E1270008C0
:100030004504000800000000DD270008E52700084F
:10004000FF020008FF020008FF020008FF0200088C
:10005000FF020008FF020008FF020008FF0200087C
:10006000FF020008FF020008FF020008FF0200086C
:10007000FF020008FF020008FF020008FF0200085C
:10008000FF020008FF020008FF020008FF0200084C
:10009000D9450008FF020008FF020008FF0200081F
:1000A000FF020008FF020008FF020008FF0200082C
:1000B000FF020008FF020008FF020008FF0200081C
:1000C000FF020008FF020008FF020008FF0200080C
:1000D000FF020008FF020008FF020008FF020008FC
:1000E000FF020008FF020008FF020008FF020008EC
:1000F000FF020008FF020008FF020008FF020008DC
:10010000FF020008FF020008FF020008FF020008CB
:10011000FF020008FF020008FF020008FF020008BB
:10012000FF020008FF020008FF020008FF020008AB
:10013000FF020008FF020008FF020008FF0200089B
:10014000FF020008FF020008FF0200080000000094
:10015000000000000000000000000000000000009F
:10016000000000000000000000000000FF02000886
:10017000FF020008FF02000869280008FF020008CB
:10018000FF020008FF020008FF020008FF0200084B
:10019000FF02000800000000FF020008FF02000844
:1001A000FF020008FF020008FF020008FF0200082B
:1001B000FF020008FF020008FF020008FF0200081B
:1001C000FF020008FF020008FF020008FF0200080B
:1001D000FF020008FF02000800F002F800F072F8C9
:1001E00014A696E8000CB244B344DA4501D100F0FD
:1001F00069F8BAE80F000FA696E83000A5EB0405F1
:1002000004EB0607AAEB0704A7F101074FEA15154F
:100210004FEA3414A4F10104AC4201D300F052F8C7
:1002200013F0010F18BFFB1A43F0010300F001F8AF
:10023000DBE71847A8450000C84500000A444FF016
:10024000000C10F8013B13F0070408BF10F8014B35
:100250001D1108BF10F8015B641E05D010F8016B7A
:10026000641E01F8016BF9D113F0080F1EBF10F8DE
:10027000014BAD1C0C1B09D16D1E58BF01F801CB01
:10028000FAD505E014F8016B01F8016B6D1EF9D584
:100290009142D6D37047000070470000002300242D
:1002A00000250026103A28BF78C1FBD8520728BF86
:1002B00030C148BF0B6070471FB504F076FA1FBD10
:1002C00010B510BD00F058F81146FFF7F5FF04F027
:1002D00031FA00F076F803B4FFF7F2FF03BC00F048
:1002E0007DF800000948804709480047FEE7FEE71F
:1002F000FEE7FEE7FEE7FEE7FEE7FEE7FEE7FEE7D6
:1003000004480549054A064B704700005528000877
:10031000D9010008081C002008220020081E002027
:10032000081E00204FF0000200B513469446964682
:10033000203922BFA0E80C50A0E80C50B1F12001F8
:10034000BFF4F7AF090728BFA0E80C5048BF0CC0A6
:100350005DF804EB890028BF40F8042B08BF704704
:1003600048BF20F8022B11F0804F18BF00F8012B76
:100370007047704770477047754600F02BF8AE46DF
:1003800005006946534620F00700854618B020B5A1
:10039000FFF7B6FFBDE820404FF000064FF0000722
:1003A0004FF000084FF0000BAC46ACE8C009ACE8D9
:1003B000C009ACE8C009ACE8C00921F007018D46CE
:1003C000704710B50446AFF300802046BDE81040EA
:1003D000FFF781BF004870478801002001491820BD
:1003E000ABBEFEE72600020070470000FEE70000FB
:1003F000002070470020704710B541F20C64C2F233
:10040000000440F60C61C2F200012046002202F016
:1004100011FD40F20C61C2F20001204602F000FD25
:10042000002010BD10B541F20C64C2F20004014678
:10043000204602F0F5FC204602F01CFC002010BD16
:100440000020704770470000EFF3108072B600BFC5
:10045000FEE700002DE9F04F82B00D68002D00F09E
:10046000C58000F13847860546EA972741F20046E5
:10047000C4F60006062240F2004EB04208BF052234
:10048000C4F2010E052F38BF3A464FF0000C01248C
:1004900000270026009209E00D68013635FA06F2C1
:1004A00007F102070CF1040C00F0A08004FA06FB2F
:1004B00015EA0B08F0D0D1F804A003230AF00305D5
:1004C0006A1EBB40012A6FEA03090FD88268CB6815
:1004D00002EA0902BB401A4382604268CAF3001371
:1004E00022EA0B02B3401A43426003E0032D01D11C
:1004F00003251FE0C2688B6802EA0902BB401A4369
:10050000022DC26016D16FF0030202EA56020244C5
:100510000CF01C050F23D2F820A003FA05FB0B6991
:100520002AEA0B0AAB4043EA0A031362D1F804A09B
:100530000AF00305026805FA07F302EA09021A4302
:100540001AF4403F0260A7D041F26003C4F20203F4
:100550001A684FF6084A42F001021A601A68CFF68C
:10056000FF7A02F001020192019A26F0030272441E
:1005700052F80A900CF00C050F23009CAB4029EABE
:10058000030304FA05F52B4342F80A30DEF808208D
:100590004B6842EA080540F20C49DC0258BF22EAE7
:1005A0000805CEF80850C4F20109D9F800209D02D0
:1005B00042EA080458BF22EA0804C9F80040DEF8FD
:1005C00004209D0342EA080458BF22EA0804CEF83A
:1005D0000440DEF80020DB0342EA080458BF22EAA8
:1005E0000804CEF80040012456E700BF02B0BDE881
:1005F000F08F00001823002A08BF2823C15070473D
:1006000041F60440C2F200000068704740F200006A
:1006100041F60441C2F20000C2F2000140680A68DB
:10062000104408607047000080B5032000F0BCF85B
:100630000F2000F009F800281CBF012080BD00F049
:100640005BF8002080BD0000B0B586B041F26001CB
:10065000C4F202010A68044642F480120A60096882
:1006600001A801F4801101910199694601F004FC8F
:1006700001F024FC4DF68361C4F21B31A0FB0101A3
:100680004FF0FF3000EB914141F6B83045F20002E7
:10069000C2F20000C4F2010240F2E7330025C0E9D3
:1006A0000021C0E90253056101F096FE054618B12C
:1006B000284606B0B0BD00BF41F6B830C2F2000017
:1006C00001F0BEFE05460028F2D14E2000F02EF8C3
:1006D0000F2C0DD84E2021460022002500F038F8BE
:1006E00040F20000C2F200000460284606B0B0BD2F
:1006F0000125284606B0B0BD82B041F25800C4F2D0
:100700000200816841F001018160816801F001010E
:1007100001910199016841F080510160006800F089
:1007200080500090009802B001F0AAB8002848BF9D
:10073000704700F01F01012202FA01F11C2202EAB7
:10074000D0004EF20012CEF200028150704700003D
:1007500010B54EF60C5CCEF2000CDCF80030C3F3A2
:10076000022E8EF00704042C28BF0424BEF10303DC
:100770004FF0FF3E0EFA04F438BF0023A143994026
:100780000EFA03F39A43114300F00F0200F16043A5
:100790000901043A03F564436244002848BF02F1AA
:1007A0000C03197010BD00004EF60C51CEF2000182
:1007B0000A684FF6FF031A4060F30A2242F0806095
:1007C00040F0FD700860704701220168C0F8D02237
:1007D000002280F8C822B1F8540040F00100A1F8CE
:1007E0005400B1F8540040F002020020A1F8542057
:1007F0007047000010B50129044613D011BB607A80
:1008000048B101F0F1FF4EF61050CEF20000016841
:1008100021F006010160D4F8D802BDE8104002F0D2
:10082000C5BD00BFD4F8D80202F048FE607A0028A7
:1008300008BF10BD4EF61050CEF20000016841F026
:100840000601016010BD000080B501F0070C0CEB43
:100850008C0C00EBCC0C01EB810E0CF1100C00EBBE
:10086000CE00090658BF00F5A87C0020002A19BF59
:10087000CCF808300121ACF8063000218CF80C10BF
:1008800080BD000001EB8102D0F8D83200EBC2003D
:10089000426A184602F04ABC01EB8102D0F8D83215
:1008A00000EBC200D0F86421184602F093BC0000AF
:1008B00010B5044648B2B0F1FF3F01F0070000EB6D
:1008C000800104EBC10205DD02F5A871002382F866
:1008D000513103E0012302F11001537494F8902286
:1008E0000870012A04BF022010BD2068012284F88C
:1008F000902203F035FA002084F8900210BD000029
:10090000B0B50446007901F00F02824284BF012095
:10091000B0BD48B2B0F1FF3F01F0070000EB80012D
:1009200004EBC10206DD02F5A871002382F8513103
:1009300004E000BF012302F11001537494F89022E7
:100940000025012A8D70087004BF0220B0BD206808
:10095000012284F8902203F097FA284684F89052F6
:10096000B0BD000001F0070101EB810100EBC10007
:10097000D0F86C017047000070B5064648B2B0F17F
:10098000FF3F01F0070000EB800107DD06EBC1042B
:1009900004F5A871002584F8515106E006EBC10C5E
:1009A00001240CF110018CF811406FF3DF22087064
:1009B0000A61022BCB7004BF0020087196F89002E8
:1009C000012804BF022070BD3068012286F8902201
:1009D00003F034F8002086F8900270BD10B501F0E5
:1009E000070C0CEB8C0100EBC10E00680EF5A87132
:1009F0000024CEF86421CEF86831CEF86C418EF830
:100A000051418EF850C103F097FA002010BD00004C
:100A100010B50279044601F00700904284BF01201E
:100A200010BD4AB2B2F1FF3F0ADD01EB810104EBD8
:100A3000C10202F5A871002382F8513108E000BF1D
:100A400000EB800104EBC102012302F11001537499
:100A500094F890320122012B8A70087004BF0220A2
:100A600010BD206884F8902203F04CFA002084F82E
:100A7000900210BD80B501F0070C0CEB8C0100EB6F
:100A8000C10101F810CF00684FF0010C01F114070B
:100A900081F824C04FF0000E87E80C400B6281F80B
:100AA00001C003F049FA002080BD00002DE9F04F9D
:100AB00081B00446006803F095FD010422D441058D
:100AC00000F1E683410400F1F583810400F10A841A
:100AD000C10400F11184010500F13484010600F124
:100AE0004B84810500F15884C00540F1DF83206804
:100AF000B0F8441021F48071A0F8441001B0BDE8B2
:100B0000F08F00BF2068B0F94410B1F1FF3F00F34F
:100B1000CD8304F5267140F60F7B009123E000BFE2
:100B2000B0F8501094F85021014401EBC201B1F823
:100B30000634B4F8562100996FF39F23C4F86C3142
:100B400003F054FD2068018801EA0B018031018027
:100B5000204600F0CFFD00BF2068B0F94410B1F18D
:100B6000FF3F00F3A383B0F8442012F00F090DD02B
:100B700030F929104FEA490AB1F1FF3F1FFA81F815
:100B80002EDD5FEA0860E7D550E100BF0188D2069C
:100B900068D401EA0B0101F500410180B0F8501062
:100BA000227C084400EBC200B0F80204616A6FF3D3
:100BB0009F20E0620844606220460021FFF762FE49
:100BC000207B0028C8D0A06A0028C5D1207B2168DE
:100BD00040F08000C0B2A1F84C0000202073BBE7B9
:100BE00030F81A1040F60F7C01EA0B01803120F832
:100BF0001A1009EB890104EBC10B9BF85C110BF592
:100C0000A876002972D09BF85311022940F0808009
:100C1000B0F850703178DBF8683107440BF5B472E6
:100C20005FEA484507EBC10700F18C80B7F806740E
:100C300000256FF39F27DB1B38BF2B46136040F264
:100C400097805FEA486200F1A38030F8212048F2E3
:100C5000C00302EA0C021A4320F82120002F40F0C2
:100C60009880BDE00A053FF55BAF09B2B1F1FF3FE7
:100C70003FF772AF018801EA0B0180310180B0F8C3
:100C8000501094F85021014401EBC201B1F8063430
:100C90006FF39F23C4F86C3193B1D4F8641179B128
:100CA000B4F8562103F0A2FCD4F86401D4F86C1116
:100CB0000844C4F8640120460021FFF7EDFD2068D8
:100CC00001880A053FF548AF01F44051B1F5405F96
:100CD0003FF442AF018843F60F7211404CF280029C
:100CE000A2F580525140018036E700BFB0F85010A5
:100CF0003278014401EBC201B1F806746FF39F270B
:100D0000002F6DD0DBF86411BBF8562163E000BF03
:100D1000327848F2C00330F8221001EA0C0119437E
:100D200020F8221030F82230B0F8501000EBC20248
:100D30005B04114416D4B1F806746FF39F2747BBC8
:100D40004EE000BFB7F8027400256FF39F27DB1B4E
:100D500038BF2B46136021D95FEA48622DD4B7BB58
:100D60003EE000BFB1F802746FF39F277FBB37E00E
:100D700030F8212043F60F731A4048F2C00303F500
:100D8000FE535A4020F821205FEA48627FF55DAFAC
:100D900037B3DBF86411BBF85A211CE030F821208E
:100DA00043F60F731A4048F2C00303F5FE535A404E
:100DB00020F821205FEA4862D1D530F8212048F29E
:100DC000C00302EA0C021A4320F8212047B1DBF8E5
:100DD0006411BBF858213B4603F008FC01E000BF5A
:100DE0000027DBF86C11DBE9590239443844CBF8B1
:100DF0006C11CBF864011AB1DBF86001B8420BD971
:100E000031782046FFF748FD40F60F7B5FEA086027
:100E10007FF5A2AE0AE000BF2068314603F08CF8EF
:100E200040F60F7B5FEA08607FF596AE206809EB1D
:100E3000890130F81A2004EBC10502EA0B0101F523
:100E4000004120F81A10EF7C05F11009012F23D181
:100E5000297F00294FF00001A96200F039815FEA83
:100E6000486100F18780697C012900F01B8100291D
:100E700040F02E81B0F8501099F80020084400EBA3
:100E8000C200B0F806146FF39F21A0F80614B0F862
:100E9000061441F400410DE15FEAC8511ED4B0F8D8
:100EA000502099F80010024402EBC102B2F802246B
:100EB000AB6A6FF39F229B1A4FF0000738BF3B4687
:100EC000AB6240F20781696AEB6A11446962991862
:100ED000E962494603F030F83EE600BFB0F850A0A2
:100EE00099F800102A4652F8286F5FEA486300EB31
:100EF000C10E59D40EF2064C3CF80AA000236FF341
:100F00009F2AB6EB0A0638BF1E46166040F286805E
:100F10005FEA484208D430F821204CF2800702EA08
:100F20000B023A4320F821202A4612F8341F0129E7
:100F300040F09E812E4656F8307F56E904E156F87F
:100F4000048C5144D044774546F80C1C46F8048C78
:100F500080F00A81002F00F04F81BE46336013708D
:100F60006A7C012A40F00781B0F850202CF802E09A
:100F700063E100BF697C012900F0A080002940F0F6
:100F8000A780B0F8501099F80020084400EBC20088
:100F9000B0F802146FF39F21A0F80214B0F8021405
:100FA00041F4004192E000BF0EF2024C3CF80AA06E
:100FB00000236FF39F2AB6EB0A0638BF1E46166061
:100FC0004ED95FEA484208D530F821204CF280071C
:100FD00002EA0B023A4320F821202E4616F8341F6D
:100FE000012940F045812A4652F8308F52E90471B8
:100FF00052F804EC5144D644B84542F80C1C42F86F
:1010000004EC80F0D1804FF0000EB8F1000F86F8AC
:1010100000E040F0CC80D046CBE000BF6A7C012AE3
:101020005CD0002A63D1B0F850207244B2F8023488
:101030006FF39F23A2F80234B2F8023443F4004362
:10104000A2F80234B0F850203CF802306FF39F232E
:101050002CF802303CF8023043F4004345E000BF76
:101060006A7C012A58D0002A5FD1B0F850203CF8A1
:1010700002306FF39F232CF802303CF8023043F427
:1010800000432CF80230B0F850207244B2F8063415
:101090006FF39F23A2F80634B2F8063443F40043FA
:1010A00041E000BFB0F8501099F80020084400EB70
:1010B000C2000021A0F806140AE000BFB0F85010EA
:1010C00099F80020084400EBC2000021A0F80214A7
:1010D00099F800102046FFF7D5FB3DE5B0F8502009
:1010E0007244A2F80234B0F850202CF80230022FDB
:1010F0000AD130F8212040F63F731A4048F2C0036D
:10110000203B5A4020F821202046FFF7BBFB5FEA36
:1011100048403FF521AD1CE0B0F850202CF80230DB
:10112000B0F850207244A2F80634022F0AD130F8E9
:10113000212040F63F731A4048F2C003203B5A403A
:1011400020F821202046FFF79DFB5FEA48407FF50D
:1011500003AD206899F800104CF2800330F821208C
:1011600002EA0B021A438FE0A7EB0E0232606A7CA0
:10117000012A3FF4F9AE002A5FD1B0F85030BEF139
:10118000000F3CF803206FF39F222CF803203BD084
:10119000BEF13E0F40D80EF001023CF8036002EBB6
:1011A0005E0246EA822246E0A8EB070EB846C2F885
:1011B00000E06A7C012A19D0002A54D1B0F85030DE
:1011C000B8F1000F3CF803206FF39F222CF80320A6
:1011D0001ED0B8F13E0F35D808F001023CF803707C
:1011E00002EB580247EA82223BE000BFB0F85020F1
:1011F0002CF8028037E000BF00271770D6466A7CC3
:10120000012AB8D1B0E600BF3CF8032011E000BFCE
:101210003CF8032023E000BF5FEACE664FEA5E128F
:101220003CF803604FF0FF3708BF07EB5E1246EA59
:10123000822242F400422CF803206A8B1FFA8EF3BC
:1012400014E000BF5FEAC8674FEA58123CF8037029
:101250004FF0FF3608BF06EB581247EA822242F4ED
:1012600000422CF803202A8B1FFA88F303F014FAAB
:10127000206899F8001040F63F7330F821201A409A
:1012800048F2C003103B5A4020F8212064E400BF1C
:101290002068B0F8441021F48061A0F84410204682
:1012A00000F0EAF994F8900201280DD101B0BDE8F0
:1012B000F08F00BF2068B0F8441021F48041A0F8FE
:1012C000441001B0BDE8F08F0120002584F89002A1
:1012D00025732068002103F0D7F984F8905201B0FB
:1012E000BDE8F08F2068B0F8441021F40051A0F858
:1012F000441001B0BDE8F08F2068B0F8401021F034
:101300000401A0F84010B0F8401021F00801A0F846
:10131000401094F8C802012806D1002084F8C802C1
:1013200020460021FFF766FA204600F0B7F9206852
:10133000B0F8441021F48051A0F8441001B0BDE889
:10134000F08F00BF2168B1F8400040F00800A1F81C
:101350004000B1F8440020F40060A1F84400B1F866
:10136000400040F004022046A1F8402001B0BDE852
:10137000F04F00F0DDB900BF2068B0F8441021F054
:101380008001A0F8441094F8C81299B1204601B029
:10139000BDE8F04F00F0CCB92168B1F8440020F46A
:1013A00000722046A1F8442001B0BDE8F04F00F0E3
:1013B00089B900BFB0F8401041F00401A0F8401016
:1013C000B0F8401041F00801A0F84010012184F865
:1013D000C812B0F854003C2101EA900220460121D5
:1013E000C4F8CC2201B0BDE8F04FFFF703BA00000B
:1013F000002804BF0120704770B5044690F89102A0
:1014000028B9002084F89002204600F001F903205A
:1014100084F89102206802F02DFD94F804E0BEF1FA
:10142000000F00F0E2800EF0030CBEF1040F4FF04D
:10143000000237D30EF0FC03A4F1A0000321012524
:10144000CE1E80F8B0608E1E80F8D8604E1E80F8E8
:10145000006180F828110E1D013180F8B15080F82C
:10146000B320C0E93022C0F8C82080F8D95080F8F5
:10147000DB20C0E93A22C0F8F02080F8015180F862
:101480000321C0E94422C0F8182180F8295180F8CE
:101490002B21C0E94E22C0F84021A03099423146AC
:1014A000CED1F21EBCF1000F29D002EB820004EB7A
:1014B000C00301210020BCF1010F59741A74D874C3
:1014C000C3E9080098621AD0531C03EB830504EBB0
:1014D000C505BCF1020F69742B74E874C5E90800F6
:1014E000A8620CD0901C00EB800104EBC10101222A
:1014F000087400204A74C874C1E908008862BEF10B
:10150000000F72D0BEF1040F4FF0000236D30EF080
:10151000FC000321234600BFCE1E83F850618E1EBF
:1015200083F878614E1E83F8C8110D1D013183F8D0
:10153000512183F85321C3E95822C3F8682183F865
:10154000792183F87B21C3E96222C3F8902183F8D3
:10155000A12183F8A06183F8A321C3E96C22C3F819
:10156000B82183F8C92183F8CB21C3E97622C3F8D7
:10157000E021A03381422946CED1EA1EBCF1000F02
:1015800033D002EB820004EBC0010020BCF1010F5C
:1015900081F8510181F8502181F85301C1E95800C7
:1015A000C1F8680121D0511C01EB810304EBC30396
:1015B000BCF1020F83F8510183F8501183F85301F5
:1015C000C3E95800C3F868010FD0901C00EB8001FC
:1015D00004EBC101002281F8512181F8500181F80A
:1015E0005321C1E95822C1F8682194E8070002F0AC
:1015F00033FC00200121207384F89112A17A012983
:1016000018BF70BD2046FFF7DFF8002070BD000056
:1016100010B596B0044601A804305021FEF782FEB2
:10162000206845F60041C4F20001884202D016B09D
:1016300010BD00BF4FF40050019001A800F02AF93E
:10164000002818BFFEF700FF41F25800C4F2020064
:101650000168002241F4000101600068002100F4EB
:101660000000009000981420FFF772F81420FFF794
:101670005DF816B010BD000010B504464079022890
:1016800018BFFEF7E1FED4F8D802012101F0AAFE4E
:10169000D4F8D802BDE8104001F054BE10B504469D
:1016A000407A48B14EF61050CEF20000016821F0A9
:1016B0000601016001F098F8D4F8D802BDE81040A6
:1016C00001F074BED0F8D80201F07ABE10B504461D
:1016D00090F89002012804BF022010BD012084F878
:1016E00090022173206802F0CFFF002084F890025E
:1016F00010BD0000D0F8D82200F52671104601F088
:1017000087BE000010B5044690F89002012804BF7F
:10171000022010BD2068012184F8901202F052FFCF
:10172000206802F08FFB002084F8900210BD0000BA
:1017300010B50446D0F8D80201F0C0FE607A002847
:1017400008BF10BD4EF61050CEF20000016841F007
:101750000601016010BD0000B0F5007F42D00028F6
:1017600040F0808047F21400C4F2000050F8141CCE
:10177000C26E01F4C06122F48072B1F5806FC2665E
:101780002ED150F8141C012262F34A2140F8141C97
:1017900040F22801C2F200010968322251434DF69D
:1017A0008362C4F21B32A1FB0212910C0268520543
:1017B00011D54A1C0FD0026852050CD559B10268E8
:1017C000520508D5012906D00268520503D5022921
:1017D000A1F10401EAD10068400544BF032070472D
:1017E0000020704747F21400C4F2000050F8141CA7
:1017F000C26E01F4C06142F48072B1F5806FC266BE
:10180000EED150F8141C012262F34A2140F8141C56
:1018100040F22801C2F200010968322251434DF61C
:101820008362C4F21B32A1FB0212910C02685205C2
:1018300011D54A1C0FD0026852050CD559B1026867
:10184000520508D5012906D00268520503D50229A0
:10185000A1F10401EAD10068400544BF03207047AC
:10186000BEE700BF47F21400C4F2000050F8141C99
:10187000022262F34A2140F8141C00207047000045
:1018800047F20800C4F20000016841F480410160A1
:10189000704700002DE9F04182B00446807841F2A3
:1018A00088060007C4F2020602D400202FE000BF21
:1018B00056F8300C5FEAC0080BD456F8300C40F0F4
:1018C000805046F8300C56F8300C00F080500190F3
:1018D000019847F20007C4F20007386840F48070AE
:1018E0003860FEF78DFE05463868C00500F10C81B2
:1018F000FEF786FE401B0228F6D90320B8F1000F40
:1019000005D456F8301C21F0805146F8301C21686F
:10191000CA0717D18A071DD44A0723D40A0729D436
:10192000CA062FD48A0635D44A063BD40A0641D4C7
:10193000CA0547D48A034DD48A0553D44A0559D4DD
:1019400067E000BF3268636822F003021A43326026
:101950008A07E1D53268A36822F00C021A4332608C
:101960004A07DBD53268E36822F030021A4332605E
:101970000A07D5D53268236922F0C0021A433260C3
:10198000CA06CFD53268636922F440721A433260C6
:101990008A06C9D53268A36922F440621A433260CC
:1019A0004A06C3D53268E36922F440521A433260D2
:1019B0000A06BDD53268236A22F440421A433260D7
:1019C000CA05B7D53268636A22F440321A433260DE
:1019D0008A03B1D57269A36A22F003021A437261C5
:1019E0008A05ABD53268E36A22F440221A4332609A
:1019F0004A050ED53268236B22F440121A43B3F520
:101A0000801F326005D156F87C2C42F4801246F8D3
:101A10007C2C0A050ED53268636B22F440021A430F
:101A2000B3F5800F326005D156F87C2C42F4801259
:101A300046F87C2CCA040ED53268A36B22F04072A3
:101A40001A43B3F1807F326005D156F87C2C42F402
:101A5000801246F87C2C8A040ED53268E36B22F0A3
:101A600040621A43B3F1006F326005D156F87C2C06
:101A700042F4801246F87C2C4A040ED53268236C5E
:101A800022F040621A43B3F1006F326005D156F87C
:101A90007C2C42F4801246F87C2C0A040ED5326865
:101AA000636C22F040521A43B3F1805F326005D17B
:101AB00056F87C2C42F4803246F87C2CCA030ED5B2
:101AC0003268A36C22F040421A43B3F1804F326077
:101AD00005D156F87C2C42F4803246F87C2C490320
:101AE0000ED57169E26C21F440111143B2F5001F6B
:101AF000716105D156F87C1C41F4801146F87C1CBC
:101B000002B0BDE8F08100BFB06810F4407010D0A2
:101B1000216D88420BD0B068B16820F4407041F468
:101B20008031B160B16821F48031B160B060C0072C
:101B30000CD1B068216D20F440700843B0600020E3
:101B4000B8F1000F3FF5E3AEDBE600BFFEF758FD4E
:101B5000054641F2883700BFB0688007E9D4FEF738
:101B60004FFD401BB842F7D9C7E600002DE9F0470A
:101B7000002865D042F2000AC4F2020A0446DAF8EC
:101B800000000D4600F00F0088420CD2DAF8000089
:101B900020F00F002843CAF80000DAF8000000F037
:101BA0000F00A8424CD1216841F20808C807C4F2CE
:101BB000020803D1880740F1D480B9E060680228A8
:101BC0003AD0032840D158F8082C920138D5D8F8DB
:101BD0000420D8F8043042F20046C3F3031302F0A5
:101BE0000302D8F804700133C0F2F406032A04BFDC
:101BF00041F20026C0F27A06B6FBF3F2D8F80430C0
:101C0000C7F306277A43C3F34163022707EB430375
:101C1000B2FBF3F24BF20043C0F2C4439A425DD9E7
:101C2000D8F8002012F0F00F4DD0890756D5A168E2
:101C3000002953D147E000BF58F8081C890307D496
:101C40000120BDE8F08700BF58F8081C4905F7D50A
:101C5000D8F8001001F00C0104293FD0D8F800108A
:101C600001F00C01082939D0D8F8001001F00C015E
:101C70000C2933D1D8F80410D8F8042042F20047D8
:101C8000C2F3031201F00301D8F804300132C0F2AC
:101C9000F407032904BF41F20027C0F27A07B7FB1B
:101CA000F2F1D8F80420C3F306235943C2F341628A
:101CB000022303EB4202B1FBF2F14BF20042C0F20D
:101CC000C44291420AD9D8F80010082262F30711E1
:101CD0004FF00109C8F8001002E000BF4FF0000902
:101CE000D8F8001021F003010843C8F80000FEF7FF
:101CF00087FC064641F28837D8F80000616800F09A
:101D00000C00B0EB810F07D0FEF77AFC801BB842C5
:101D1000F2D90320BDE8F0872168880708D4B9F11B
:101D2000000F1ED0D8F8000020F0F00017E000BF30
:101D3000480705D5D8F8000040F4E060C8F8000076
:101D4000080706D5D8F80000072262F30D20C8F86E
:101D50000000D8F80000A26820F0F0001043C8F896
:101D60000000DAF8000000F00F00A8421BD9DAF8F2
:101D7000000020F00F002843CAF80000FEF740FCE6
:101D8000064641F2883700BFDAF8000000F00F0085
:101D9000A84207D0FEF734FC801BB842F4D90320D8
:101DA000BDE8F0872168480707D5D8F80000E26849
:101DB00020F4E0601043C8F80000080708D5D8F800
:101DC0000000216920F4605040EAC100C8F800001A
:101DD000D8F8000042F20041C0F2F40100F00C001B
:101DE000042808462DD0D8F8000000F00C00082880
:101DF00041F20020C0F27A0023D0D8F8002002F08F
:101E00000C020C2A1CD1D8F80420D8F8043002F0B7
:101E10000302C3F30313D8F804700133032A08BF85
:101E20000146B1FBF3F0D8F80410C7F30627C1F35D
:101E300041610222784302EB4101B0FBF1F000E086
:101E40000020D8F8001044F2C472C1F30311C0F6A8
:101E50000002515C40F2280201F01F0120FA01F15A
:101E600040F20000C2F200000068C2F200021160FD
:101E7000BDE8F047FEF7E8BB0F22026041F208021E
:101E8000C4F20202136803F003034360136803F013
:101E9000F0038360136803F4E063C36012684FF4D7
:101EA000E06303EAD202026142F20000C4F20200DF
:101EB000006800F00F0008607047000040F2280042
:101EC00041F20801C2F20000C4F202010068096890
:101ED00044F2D472C1F3C221C0F60002515C01F099
:101EE0001F01C84070470000002804BF0120704750
:101EF0002DE9F04182B00446007841F20006C007A7
:101F0000C4F202061ED1207880073DD42078000755
:101F100064D42078400700F187802078800600F1A3
:101F2000D980E569002D00F04482B06800F00C0013
:101F30000C2840F03181012D40F09081012002B049
:101F4000BDE8F081B06800F00C01F068082961D0AC
:101F5000032281F00C0122EA00000844B0FA80F06C
:101F6000400957D16068B0F5803F07D0B0F5A02F89
:101F700040F0E480306840F480203060306840F405
:101F800080303060E5E000BFB068F16800F00C0020
:101F9000042871D001F0030180F00C0081F00201EF
:101FA0000844B0FA80F0400966D1E1683068002941
:101FB00000F0E08040F480703060FEF721FB0546C1
:101FC0003068400500F10A81FEF71AFB401B022829
:101FD000F6D9032002B0BDE8F08100BF6169D6F8F0
:101FE0009400002900F0948040F00100C6F89400AD
:101FF000FEF706FB054600BFD6F8940080073FF5C4
:1020000088AFFEF7FDFA401B0228F5D9032002B085
:10201000BDE8F081306880037FF575AF6068002807
:102020007FF471AF3EE000BFB06D5FEAC00808D436
:10203000B06D40F08050B065B06D00F08050019000
:10204000019847F20007C4F200073868C0052DD494
:10205000386840F480703860FEF7D2FA054600BF59
:102060003868C00522D4FEF7CBFA401B0228F7D906
:10207000032002B0BDE8F0813068400501D5E0687A
:1020800080B17068216920F0FE4040EA0160706014
:1020900040F20000C2F200000068FEF7D5FA002806
:1020A0003FF434AF012002B0BDE8F081A068012800
:1020B00008D0052840F0B080D6F8900040F0040029
:1020C000C6F89000D6F8900040F00100C6F89000E5
:1020D000B0E000BFA169D6F89800002900F0868022
:1020E00040F00100C6F89800FEF78AFA054600BFE6
:1020F000D6F8980080073FF514AFFEF781FA401B31
:1021000002284FF00300F3D902B0BDE8F08100BF10
:1021100020F00100C6F89400FEF772FA054600BFF1
:10212000D6F8940080077FF5F4AEFEF769FA401BFD
:102130000228F5D9032002B0BDE8F08131680028FB
:1021400021F480313160316821F48021316000F068
:10215000BF80FEF755FA0546306880033FF5D3AEE1
:10216000FEF74EFA401B6428F6D9032002B0BDE802
:10217000F08100BF20F480703060FEF741FA054620
:10218000306840057FF5C2AEFEF73AFA401B0228E0
:102190004FF00300F4D9B7E7306820F0807030606A
:1021A000FEF72EFA022D05460CD100BF30688001E3
:1021B00040F1BA80FEF724FA401B02284FF00300DA
:1021C000F4D9A1E73068800140F1EC80FEF718FAFD
:1021D000401B02284FF00300F4D995E7706821698D
:1021E00020F0FE4040EA016070608FE620F00100C0
:1021F000C6F89800FEF704FA054600BFD6F8980026
:1022000080077FF58EAEFEF7FBF9401B02284FF0EA
:102210000300F3D978E700BFD6F89010002821F02A
:102220000101C6F89010D6F8901021F00401C6F80C
:1022300090105DD0FEF7E4F9054641F2883700BF03
:10224000D6F89000800765D4FEF7DAF9401BB84253
:10225000F6D9032002B0BDE8F08100BFF068216A22
:1022600000F003028A427FF41DAF626A6FF00F0331
:1022700000F0F00103EB021291427FF413AFA16A68
:1022800000F4FE42B2EB012F7FF40CAFE16A00F0E4
:102290007842B2EBC16F7FF405AF226B0023CFF61B
:1022A000E07303EA025200F4C001A2F50012914269
:1022B0007FF4F8AE616B4FF07E4202EA016100F0FC
:1022C000C06001F17E4188427FF4ECAE71E000BF56
:1022D000FEF796F9054600BF306880037FF513AE20
:1022E000FEF78EF9401B64284FF00300F4D90BE78A
:1022F000FEF786F9054641F2883700BFD6F8900010
:10230000800707D5FEF77CF9401BB8424FF0030069
:10231000F4D9F9E6B8F1000F3FF5FFADB06D20F04C
:102320008050B065F9E500BFF06848F20C01C0F2DA
:102330009F1104F1200700EA010C8ECF6FF00F000F
:10234000D4E90C5400EB02100022CFF6E07241EA0F
:102350000C0102EA05520843A2F500124FF07E4537
:1023600040EA032005EA0465104305F17E4540EA92
:10237000C7602843F060306840F080703060F068DB
:1023800040F08070F060FEF73BF904463068800151
:102390000FD4FEF735F9001B02284FF00300F5D9E2
:1023A000B2E600BFF0684FF6FC71CFF6EE61084070
:1023B000F060002002B0BDE8F0810000704700002E
:1023C0007047000070470000704700007047000031
:1023D0007047000070470000002804BF01207047CC
:1023E00010B5044690F83D0028B9002084F83C0060
:1023F000204600F023F8022084F83D002068211DCB
:1024000000F038FA012084F8480084F83E0084F88F
:102410003F0084F8400084F8410084F8420084F8CA
:10242000430084F8440084F8450084F8460084F8AA
:10243000470084F83D00002010BD000070470000F8
:1024400090F83D1001291BD1022180F83D10016850
:1024500042F6FF32C868C4F20102914240F0010026
:10246000C8600FDC40F2FF70C4F20000814219DC4A
:10247000B1F1804F2ED040F20040C4F2000027E0BE
:102480000120704743F6FF70C4F20100814215DC61
:1024900042F60040C4F2010081421BD043F20040EA
:1024A00014E000BF40F60000C4F20000814211D0E9
:1024B00040F60040C4F200000AE000BF45F2000010
:1024C000C4F20100814205D044F20000C4F20100D0
:1024D00081420CD188680722C0F201020240062A1C
:1024E0004FF00000CDD0B2F5803F08BF70470868BC
:1024F00040F00100086000207047000070470000B5
:10250000F0B581B004460068C5680669B10717D503
:1025100015F0020114D06FF0020101610121217751
:102520008069800704D02046FFF7E8FF06E000BF7F
:10253000204600F0CBF8204600F0CAF800202077B3
:10254000700719D515F0040016D020686FF004014B
:10255000016102212177806910F4407F04D0204678
:10256000FFF7CCFF06E000BF204600F0AFF82046A2
:1025700000F0AEF800202077300717D515F00800DE
:1025800014D020686FF00801016104212177C0692F
:10259000800703D02046FFF7B1FF05E0204600F09A
:1025A00095F8204600F094F800202077F00619D521
:1025B00015F0100016D020686FF01001016108219D
:1025C0002177C06910F4407F04D02046FFF796FFC2
:1025D00006E000BF204600F079F8204600F078F8C9
:1025E00000202077F00718BF15F0010006D0206802
:1025F0006FF001010161204600F06CF816F4025FF3
:1026000005F0800718BF002F02D1F00509D410E0B3
:1026100020686FF4025101612046FFF7D1FEF005FA
:1026200007D537B120686FF4807101612046FFF74C
:10263000C5FE700609D515F0400006D020686FF081
:1026400040010161204600F04FF8B00609D515F0B1
:10265000200006D020686FF0200101612046FFF7BE
:10266000B1FEF00209D515F4801006D020686FF491
:10267000801101612046FFF7A9FEB00209D515F4CB
:10268000001006D020686FF4001101612046FFF7AA
:102690009BFE700209D515F4800006D020686FF407
:1026A000800101612046FFF793FE30020CD515F43E
:1026B000000009D021686FF4000220460A6101B0D1
:1026C000BDE8F040FFF786BE01B0F0BD70470000E6
:1026D00070470000006845F20001C4F20101884221
:1026E00018BF7047FDF792BF70470000FEE700007B
:1026F00070B586B0002541F24C000595C4F2020089
:10270000016840F6000441F0040101600168C4F66C
:10271000000401F00401009100990168002241F0D9
:10272000200101600168072601F020010091009955
:10273000016841F0010101600068072100F001001B
:10274000009000982046FDF755FF0120CDE90205D5
:1027500001A9204601960495FDF77CFE06B070BDE8
:1027600080B541F20C6040F20801C2F20000C2F2F2
:102770000001002200F0A0FC002818BFFDF764FE55
:1027800041F20C6040F22C01C2F20000C2F20001E2
:1027900000F0BCFE002818BFFDF756FE41F20C60A9
:1027A00040F25011C2F20000C2F2000100F078FACB
:1027B000002818BFFDF748FE41F20C60C2F200008D
:1027C00000F0C4FE002808BF80BDBDE88040FDF7D2
:1027D0003BBE0000FEE70000FEE70000704700007F
:1027E0007047000070470000B0B594B0002400208E
:1027F000CDE90A44CDE90844FEF7AEFF212006905A
:102800004FF48030079001200C90022003255521C1
:102810000D90CDE90E50CDE91010CDE9120006A8BB
:10282000FFF762FB20B1EFF3108072B6FEE700BF46
:102830000F20CDE9010501A80421CDE90344059449
:10284000FFF794F920B1EFF3108072B6FEE700BFF6
:1028500014B0B0BD4EF68850CEF20000016841F4CD
:10286000700101607047000041F6B830C2F200000C
:10287000FFF746BE40F6FF330268C4F2000343F29E
:10288000FF3C9842C4F2010C0ADD60452EDC40F6A4
:102890000043C4F20003984234D042F600432DE0D6
:1028A000B0F1804F2ED040F20043C4F200039842B2
:1028B00028D040F60003C4F20003984222D06045BD
:1028C00026DC40F2FF73C4F20003984236DD40F686
:1028D0000003C4F20003984244D040F60043C4F21F
:1028E000000398423ED042F6004337E045F2000331
:1028F000C4F20103984205D043F20043C4F201033D
:102900009842DCD14B6822F070021A436045D8DD52
:1029100044F2FF33C4F20103984217DD44F200434E
:10292000C4F2010398421DD045F20003C4F2010332
:10293000984217D044F6000310E000BFB0F1804F7A
:1029400010D040F20043C4F2000309E043F2004318
:10295000C4F20103984205D044F20003C4F201031B
:10296000984203D1CB6822F440721A4380B54B6978
:1029700022F0800E8A6843EA0E03D1F800C003609B
:10298000C262A0F18042A2F59632830543EA922208
:10299000092AC0F828C0BDE8804008D8012303FAFE
:1029A00002F240F2E5231A421CBF096901630121CA
:1029B00041610169C90708BF7047016921F0010140
:1029C0000161704710B540F2EC14C2F200040A46EF
:1029D00002A0214600F006FB204610BD43444320E0
:1029E000436F6E666967000010B5D0F8BC323BB328
:1029F0008E4601EB810100EB810151F8184F64B163
:102A0000D0F8C4C20EEB8E020CEBC202D2F820C08A
:102A1000B4FBFCF202FB1C42A2B10024C3F8144236
:102A2000D0F8C002D0F810C0BCF1000F06D0D3F827
:102A3000080203F504717246E0470024204610BDE9
:102A4000032010BD00240C6071460022002300F01A
:102A50003FFD204610BD0000B0B5D0F8BC527DB19E
:102A6000044600F0EFFBD4F8C02205F50371D368EB
:102A7000D5F80422C5F80C02104698470020B0BDD6
:102A80000320B0BDB0B58121044600F03DFB002518
:102A900020460121258700F037FB20468221A4F83B
:102AA000785100F031FBD4F8BC02E56448B1D4F8A9
:102AB000C00240688047D4F8BC0200F0B7FFC4F8F9
:102AC000BC520020B0BD000040F2EC001222C2F265
:102AD00000000A807047000010B5D0F8BC428CB1ED
:102AE000D0F8C01259B194F80002FF2807D08B68C3
:102AF00094F8012221469847FF2084F80002002024
:102B000010BD00BF032010BD014640F200100A2294
:102B1000C2F200000A807047014640F2640043227E
:102B2000C2F200000A807047014640F2A80043222A
:102B3000C2F200000A807047014640F20C104322A6
:102B4000C2F200000A807047F0B581B004464FF42D
:102B5000077000F06DFFE8B30546C4F8BC02207CA6
:102B60004026002808BF4FF400762046812102222B
:102B7000334600F0C1FB01272046012102223346E3
:102B8000278700F0B9FB1020A4F84E0020468221D0
:102B900003220823A4F8787100F0AEFBD4F8C00239
:102BA000A4F84C70006880470020C5F81402C5F8EE
:102BB0001802207CD5F80422002820464FF001019D
:102BC00014BF40234FF4007300F0AAFB002001B0B3
:102BD000F0BD00BF0020C4F8BC02022001B0F0BD6F
:102BE00010B540F2EC14C2F200040A4602A02146DD
:102BF00000F0F8F9204610BD43444320496E746547
:102C0000726661636500000040F264100422C2F243
:102C100000000A807047000010B540F2EC14C2F2C8
:102C200000040A4602A0214600F0DCF9204610BD4F
:102C300053544D6963726F656C656374726F6E692E
:102C40006373000010B540F2EC14C2F200040A46AF
:102C500002A0214600F0C6F9204610BD53544D3362
:102C600032205669727475616C20436F6D506F72BB
:102C700074000000D0F8BC12002904BF0320704784
:102C800080B590F810C0D1F8042240230121BCF196
:102C9000000F08BF4FF4007300F042FB002080BD1E
:102CA00000290EBF0320C0F8C012002070470000AA
:102CB00047F29050C1F6FF70026883684FF01A0C1B
:102CC0009B18A1F800C000F0A680B0B54FF0370CFB
:102CD0001A0F0CEB13714068B3F1204F38BF02F1AB
:102CE000300140F26812C2F20002917019014FF0F7
:102CF000000E0CEB117582F803E0C3F30364B1F12D
:102D0000204F38BF04F13005190215710CEB117515
:102D100082F805E0C3F30354B1F1204F38BF04F14A
:102D20003005190395710CEB117582F807E0C3F3B8
:102D30000344B1F1204F38BF04F130051904157276
:102D40000CEB117582F809E0C3F30334B1F1204FA5
:102D500038BF04F13005190595720CEB117582F836
:102D60000BE0C3F30324B1F1204F38BF04F1300569
:102D700019061573C3F303140CEB1175B1F1204F51
:102D80004FEA037103F00F0382F80DE038BF04F13E
:102D9000300503F13704957382F80FE0B1F1204F4D
:102DA00038BF03F13004010F0CEB1073147482F878
:102DB00011E0B0F1204F38BF01F1300301010CEBFD
:102DC0001174937482F813E0C0F30363B1F1204FE0
:102DD00038BF03F1300401021475C0F303530CEB48
:102DE0001174B1F1204F4FEA003182F815E038BF7D
:102DF00003F130040CEB1173947582F817E0C0F303
:102E00000340B1F1204F38BF00F13003137682F850
:102E100019E0BDE8B04040F26810C2F2000070470F
:102E2000D0F8BC0200280EBF0320C0F80412002016
:102E300070470000D0F8BC0200280FBF0320C0F884
:102E40000812C0F8102200207047000070B582B050
:102E5000D0F8BC6204460020002E8DF80700ADF8C3
:102E6000040061D008780D4610F0600116D02029CA
:102E700056D1EA88002A27D040B2B0F1FF3F2FDDBB
:102E80006878314686F80002204686F8012200F074
:102E900075F80026304602B070BD00BF68780B2878
:102EA0003ED80026DFE800F008063C3C3C3C3C3CB9
:102EB0003C3C2A38EEE700BF94F89C0203282FD14F
:102EC00001A92046022221E0D4F8C00229468368E5
:102ED0006878002200269847304602B070BD00BFD7
:102EE000D4F8C0023146836868789847EA8820465B
:102EF000072A28BF0722314608E000BF94F89C0249
:102F000003280DD10DF107012046012200F050F8F1
:102F10000026304602B070BD94F89C020328B9D058
:102F20002046294600F01EF80326304602B070BD48
:102F3000D0F8B82222B180B552689047BDE88040F1
:102F40000020704780B513460A46002100F0E8F9DA
:102F5000002080BD80B513460A46002100F0B8FA73
:102F6000002080BD10B58021044600F083FA204681
:102F70000021BDE8104000F07DBA000080B5134686
:102F80000A460321C0F894120021C0E9563300F02C
:102F9000C7F9002080BD000080B50521C0F894125B
:102FA00000210022002300F0BBF9002080BD0000BA
:102FB00080B513460A460221C0F894120021C0E9E8
:102FC000063300F085FA002080BD000080B50421A2
:102FD000C0F8941200210022002300F079FA0020AA
:102FE00080BD0000002808BF704710B50378ABB162
:102FF00000F1020E4FF0000C1EF8013C93B19EF858
:1030000000309BB19EF80130A3B19EF802300CF164
:10301000040C002B0EF1040EEED10DE04FF0000C6D
:103020000AE000BF4CF0010C06E000BF4CF0020CBF
:1030300002E000BF4CF0030C5FFA8CFC022303EBB0
:103040004C03138003220B704A7090F800E0BEF12D
:10305000000F2ED0841C02224FF0000CD3B201F8D6
:1030600003E043F0010301F803C014F8013C03B38B
:10307000901CC0B20B5440F0010001F800C023784E
:10308000BBB1101DC0B20B5440F0010001F800C0EC
:10309000637873B1901DC0B20B5440F0010001F889
:1030A00000C094F802E00832BEF1000F04F10404FD
:1030B000D4D1BDE810407047002804BF03207047FA
:1030C0000023C0F8B832C0F8C0320029C0F8CC32B2
:1030D00018BFC0F8B412012180F89C12027000F0F1
:1030E000B5B8000080B5D0F8C402FDF709FC40F285
:1030F0000032C100C0F2013222FA01F1032888BF78
:103100000321C8B280BD000080B5D0F8C402FDF72D
:10311000CFFB40F20032C100C0F2013222FA01F1CD
:10312000032888BF0321C8B280BD0000B0B50446A3
:1031300071B194F89C0203284AD1D4F8B8024269CC
:10314000002A45D020469047002808BF0020B0BD87
:10315000D4F89402022834D1D4E9070188420DD969
:10316000431A204611461A46E361FFF7F3FE204654
:1031700000210022002300F0D3F822E010D1A16941
:1031800081420DD3D4F89802814209D22046002111
:1031900000220025FFF7DEFEC4F89852E7E700BFE3
:1031A00094F89C02032805D1D4F8B802C16809B18B
:1031B000204688472046802100F05CF92046FFF732
:1031C000EBFE94F8A002012804BF002084F8A002BE
:1031D0000020B0BD10B5044671B194F89C020328DC
:1031E0001DD1D4F8B8028269CAB1204690470028A0
:1031F00008BF002010BD00BFD4F8940203280ED1F0
:10320000D4E9570398420DD9C01AC4F85C0198421A
:1032100038BF0346204611461A46FFF793FE0020AA
:1032200010BD00BF94F89C02032805D1D4F8B80261
:10323000016909B1204688472046FFF7C7FE0020F4
:1032400010BD0000D0F8C402FDF78CBB10B50446D9
:1032500041F6DC0045F60041C2F20000C4F2000174
:1032600001604FF4027181800221C1710021C0F818
:10327000D842C4F8C4028160FEF7BAF8002818BF2B
:10328000FDF7E2F8D4F8C402002100221823FDF76C
:10329000DBFAD4F8C402802100225823FDF7D4FAC7
:1032A000D4F8C40281210022C023FDF7CDFAD4F85E
:1032B000C402012100224FF48873FDF7C5FAD4F847
:1032C000C402822100224FF48073FDF7BDFA002072
:1032D00010BD00004AB2D0F8C40201F07F0101EB3A
:1032E000810100EBC10000F5A971002A48BF00F17F
:1032F000120108787047000080B59446D0F8C402E7
:103300001A466346FDF738FB40F20032C100C0F2B6
:10331000013222FA01F1032888BF0321C8B280BD1F
:1033200080B5D0F8C402FDF759FB40F20032C1006D
:10333000C0F2013222FA01F1032888BF0321C8B28A
:1033400080BD0000F0B581B004460120002184F862
:103350009C02C4F89412D4F8B8026160C4F8A412B4
:1033600000B3D4F8BC1221B1426812B1204600214A
:103370009047204600210022402300254026FFF7E9
:10338000BBFF01272046802100224023A4F864715E
:10339000C4F86061FFF7B0FFA7842662284601B039
:1033A000F0BD00BF0325284601B0F0BD90F89C1287
:1033B000042904BF90F89D1280F89C1200207047E9
:1033C000D0F8B812002904BF0320704790F89C225F
:1033D000032A05D1C96919B180B58847002080BD8D
:1033E00000207047024600201174704780B5D0F865
:1033F000C402FEF76BF940F20032C100C0F20132A4
:1034000022FA01F1032888BF0321C8B280BD000061
:10341000B0B500F2AA250446284600F06BF801205A
:10342000C4F8940294F8AA02B4F8B02200F01F0184
:103430000229C4F8982209D001290DD091B920465B
:103440002946BDE8B04000F083B800BF20462946B9
:10345000BDE8B04000F01CBA20462946BDE8B040A7
:1034600000F0B0BA00F080012046BDE8B04000F0A6
:1034700001B8000080B5D0F8C402FDF7C9FA40F2E7
:103480000032C100C0F2013222FA01F1032888BFE4
:103490000321C8B280BD000080B5D0F8C402FEF799
:1034A00031F940F20032C100C0F2013222FA01F1DA
:1034B000032888BF0321C8B280BD0000014690F8F0
:1034C0009C02042281F89D02002081F89C22704712
:1034D00080B5D0F8C402FDF7CDFA40F20032C10049
:1034E000C0F2013222FA01F1032888BF0321C8B2D9
:1034F00080BD00000A7802704A7842704A88428093
:103500008A888280C988C1807047000010B582B067
:1035100004460020ADF8060061B1CA6AC4F8B812CA
:103520002AB10DF106009047C4F8CC02002002B089
:1035300010BD00BF032002B010BD0000D0F8B822BB
:10354000002A04BF0320704712681047FFF7A4BF8A
:10355000B0B582B00D460978044611F060010DD077
:10356000402902D0202940F0CF80D4F8B802294663
:103570008268204602B0BDE8B0401047687809284C
:1035800000F2C280DFE800F0061CC030C06480C0DA
:10359000384E00BF94F89C020138022800F2B48033
:1035A000E888022840F0B080D4F8A4020322002862
:1035B00008BF0122214641F80C2F20460222F3E0E9
:1035C00094F89C020138022800F29E806888002549
:1035D000012840F0A280C4F8A4522046FFF7F6FC70
:1035E000284602B0B0BD00BF6888012840F0668060
:1035F0000120C4F8A4020BE1E888012840F084808F
:1036000094F89C02411E022980F078800025214612
:1036100041F8085F20460122FFF7CAFC284602B0A5
:10362000B0BD00BF688840F2E815C2F2000510F096
:10363000FE0F287046D020468021FFF71BFF204652
:103640000021FFF717FF0325284602B0B0BD00BFD9
:10365000A888002858D1E888002855D168887F2894
:1036600052D894F89C1203294ED0C5B284F89E0219
:1036700020462946FFF7BAFE2046FFF7A7FC002D9B
:1036800014BF02200120E9E068884FF0FF3101EB10
:10369000102100220E29ADF8062000F28B80DFE811
:1036A00001F009553F8989636D89898989898989EB
:1036B0004B0000BFD4F8B402026841E00025284660
:1036C00002B0B0BD94F89C22C1B2032A00F07E8003
:1036D000022A40F0A580002900F09A80204661600F
:1036E000FFF72CFF002800F0B5800546204680211A
:1036F000FFF7C0FE204600210DE000BF032803D1E4
:10370000211D204601224FE020468021FFF7B2FE16
:10371000204600210025FFF7ADFE284602B0B0BDCF
:10372000C0B2052846D8DFE800F0039FA3A7ABAFDF
:10373000D4F8B402426802E0D4F8B402C269CAB351
:10374000207C0DF106019047014622E0217CD4F84F
:10375000B80200290CBF816AC16A0DF106008847D2
:103760000146022014E000BF207C18BBD4F8B80248
:10377000416B0DF10600884701460AE0207CC8B97C
:10378000D4F8B802016B0DF1060088470146072006
:103790004870EA88E2B3BDF8060058B1904238BFDD
:1037A0000246ADF806202046FFF702FC0025284619
:1037B00002B0B0BD20468021FFF75CFE204600210C
:1037C000FFF758FE0025284602B0B0BDC1B36068BF
:1037D00088421DD0C1B22046FFF7AAFB29782046B7
:1037E0006160FFF7ABFE98B1054620468021FFF7E8
:1037F00041FE20460021FFF73DFE21792046FFF7DC
:1038000097FB022084F89C02284602B0B0BD00BF9E
:103810002046FFF7DBFB0025284602B0B0BD00BF05
:1038200020468021FFF726FE20460021FFF722FEDA
:1038300029782046FFF77CFB0325284602B0B0BD5F
:10384000022084F89C026160204600210025FFF7D9
:103850006FFBC2E62046FFF7B9FB032084F89C0209
:103860000025284602B0B0BDD4F8B402826866E7ED
:10387000D4F8B402C26862E7D4F8B40202695EE721
:10388000D4F8B40242695AE7D4F8B402826956E720
:10389000B0B50D460978044611F060010CD04029FE
:1038A00001D020296ED1D4F8B8022946826820467A
:1038B000BDE8B040104700BF68782979B0B1012851
:1038C0002CD003285ED194F89C0203282AD1688862
:1038D00038B911F07F0004D0E88810B92046FFF70E
:1038E000C9FD2046FFF772FB0020B0BD94F89C0292
:1038F000032825D0022808BF5FEA416042D111F0B9
:10390000800004F114014FF0140004BF4FF4AA70BA
:1039100004F5AA710022225020464DE094F89C0242
:10392000032839D002282DD148062BD02046FFF796
:10393000A1FD20468021FFF79DFD0020B0BD00BF06
:1039400001F00F0000EB8000802904EB80002CBF09
:10395000808CB0F86401A8B101F07F0000EB80001A
:1039600004EB800000F11405802938BF00F5AA752A
:1039700048061DD02046FFF7ADFC002818BF0120E7
:1039800017E000BF20468021FFF774FD204600218C
:10399000FFF770FD0020B0BD688880B9480602D0EE
:1039A0002046FFF79FFB2046FFF710FB7BE700BF99
:1039B00000202860204629460222FFF7F9FA00205D
:1039C000B0BD0000B0B50D460978044611F06001A5
:1039D00018BF402916D194F89C020138022813D848
:1039E000A88810F0FE0F0FD1D4F8B80229468268DB
:1039F00020469047E9880546002908BF002D0FD0D2
:103A00002846B0BD2029E6D020468021FFF732FDB0
:103A1000204600210025FFF72DFD2846B0BD00BF40
:103A20002046FFF7D3FA0020B0BD00007047000029
:103A300040F2EC30C2F20000704700002DE9F04186
:103A400091F800E00246CC7830F82E0047F270631F
:103A50004FEA4E05032C20EA030309D80020DFE8D3
:103A600004F003090F0D00BF43F4007308E000BF2A
:103A7000012005E043F4806302E000BF43F4C0632B
:103A800048F28007CFF6FF773B4322F8153032F833
:103A9000153040F60F76334043EA0E033B4322F8DD
:103AA00015300B7B48F2800C002B51D032F81530CA
:103AB00040F60F66334048F28006022C08BF06F538
:103AC0008076334322F81530B2F850300F8902EB7C
:103AD000CE06334427F00107A3F80074B2F8503043
:103AE0004F89334427F00106A3F804644E7832F876
:103AF0001530002E58D0590409D532F8151040F66B
:103B00000F7319400CF58043194322F8151032F851
:103B10001510490609D532F8151040F60F731940F3
:103B20000CF14003194322F8151032F8151040F635
:103B30003F7319400CF120034B40012C08BF41EAB0
:103B40000C0322F8153032F8151043F60F73C4E059
:103B50004E78B2F85080CB884FEACE07002E23F083
:103B6000010653D0D1194144A1F8006432F8151070
:103B7000490609D532F8151040F60F7319400CF1BB
:103B80004003194322F8151032F8151040F63F7320
:103B9000012C01EA030100F0A1800CF1200359403F
:103BA00022F81510BDE8F0815B0409D532F8153014
:103BB00040F60F7423400CF58044234322F815305F
:103BC00032F815305B064FEACE0309D532F815708E
:103BD00040F60F7637400CF14006374322F8157057
:103BE000B2F8504002EB030E0EF202431E5B6FF37D
:103BF0009F261E53096949B33E2929D801F00106C1
:103C00001F5B06EB510647EA862631E0D31903EB2A
:103C10000804A4F80464B2F8504003F206431E5BA3
:103C20006FF39F261E53096900295DD03E295DD898
:103C300001F001061F5B06EB510147EA8121195390
:103C400032F81510490466D46FE000BFE65A0AE066
:103C5000CF064FEA51161F5B4FF0FF3808BF08EB45
:103C6000511647EA862648F20007CFF6FF773E4313
:103C70001E53B2F850300EF20644E75A6FF39F27F6
:103C8000E75249B13E2909D801F00107E65A07EB8E
:103C9000510146EA812111E0195B0AE0CE06E65A9D
:103CA0004FEA51174FF0FF3E08BF0EEB511746EA9F
:103CB000872148F20007CFF6FF773943E15232F807
:103CC000151043F60F7319400CF54053594022F874
:103CD000151032F8151040F63F73194041EA0C01F7
:103CE00022F81510BDE8F081E15A0AE0CF061F5B0B
:103CF0004FEA51164FF0FF3808BF08EB511647EA5C
:103D0000862148F20006CFF6FF763143195332F888
:103D10001510490409D532F8151040F60F731940F3
:103D20000CF58043194322F81510BEF1000F0BD09B
:103D300032F8151043F60F7319400CF50053594033
:103D400022F81510BDE8F081118843F60F73194071
:103D50000CF54053594022F81510BDE8F0810000E1
:103D6000B0B50C784B78097B024630F824004CF251
:103D7000800C4CF2800500294FEA44013AD0002B18
:103D800042D0400408D532F8110040F60F731840B5
:103D900040EA0C0022F8110032F8110043F60F7EC1
:103DA000400640F63F7009D532F8113040F60F74E6
:103DB0002340ACF57F54234322F8113032F8113000
:103DC00040F60F7423402B43ACF5804522F81130A8
:103DD00032F811301840284322F8110032F811004F
:103DE000ACF5804300EA0E000343002022F81130B6
:103DF000B0BD00BFF3B1400640F63F7EEED5ACF556
:103E00007F5540F60F70E3E7400408D532F8110003
:103E100040F60F73184040EA0C0022F8110032F807
:103E20001100ACF57F55400640F63F7E43F60F701B
:103E3000BAD4C3E7400443F60F7ECFD540F60F70E7
:103E4000C6E700000146B0F8580040F400420020E8
:103E5000A1F858207047000001460120A1F8400059
:103E600000220020A1F84020A1F84420A1F8502011
:103E7000704700000146B0F8400044F27F02024063
:103E80000020A1F84020704780B50A784B7830F8C0
:103E900022C04FEA42024BB15FEA4C6348F2A00EE7
:103EA00016D4C978012922D1002080BD5FEA4C4197
:103EB0004BF2800E09D530F8121040F60F731940FE
:103EC0000EF58053194320F8121043F60F7110E0DD
:103ED00030F812C040F60F730CEA030C0EF1200309
:103EE00043EA0C0320F81230C9780129DCD040F6EF
:103EF0003F7130F81230194081EA0E0120F812109B
:103F0000002080BD02460B78487832F823C040F686
:103F10003F71002848F2900008BF43F60F71CFF6BA
:103F2000FF7008BF00F57F6001EA0C0141400020EE
:103F300022F82310704700002DE9F04F82B04A7834
:103F4000012A5DD18B690A690F7B934228BF134612
:103F5000002F7DD0CF780C6A022F40F0B5800D780D
:103F600040F60F6630F825704FEA450E944206EA97
:103F7000070648F2B00C40F2EB8048F2B007CFF6EB
:103F8000FF77D0373E43A4EB030A20F81E60C1F848
:103F900020A030F81E60B0F85070ED0076069EB29A
:103FA00000EB050800F12A8108EB0704A4F80234AD
:103FB000D1F814B0002E00F03D820D890136054481
:103FC00005F580694FF0FF3505EB5604C6F3410552
:103FD000002D4FEA560700F09B815E46CDE9004870
:103FE00036F8028B5C46CB46012D2BF8028B40F055
:103FF0009381D946DDF80480A346009C013F08E286
:104000000A7B002A48F2B00246D0CB78012B00F0A0
:104010008F80022B40F09880CF690B78002F00F042
:104020008A8030F8231044F240073940B94202D068
:10403000002940F08080590030F8117040F60F766A
:10404000374002F11006374320F8117073E000BFCB
:104050001A0400F02B81CA88D1F814E0024402F55A
:104060008068012212FA83F24FF0FF37C2F3410455
:1040700007EB520C002C4FEA520200F00481774605
:1040800037F8025B4646012C26F8025B40F0E280DE
:10409000013ABE46B046F6E08F691FB9CB78002BD7
:1040A00000F0E480A2F130060B7840F60F6430F89F
:1040B000235025402E4320F823600E69B74294BF59
:1040C0000027BF1B36E000BFE21A0F780A6230F803
:1040D0002720B0F85040FD00520605444FEA470E35
:1040E0009AB248F2B00C2C4464D4002AA4F80234EA
:1040F00000F0E8800B890132496903444FF0FF3436
:10410000C2F3410503F5806304EB5208002D4FEA2A
:10411000520200F026810E4636F8024B1F46012D52
:1041200027F8024B40F0DC80013A31463B4618E16B
:104130000B7800278F6142F6D0714FEA430E02EBF5
:10414000010C43F60F71BFE0012002B0BDE8F08F13
:1041500048F2B002CFF6FF72303A324320F81E2008
:10416000B0F8502000EBC5031A442304A2F802441F
:1041700000F0A8800A894969024402F5806301229F
:1041800012FA84F24FF0FF34C2F3410504EB5208F7
:10419000002D4FEA520200F000810E4636F8024B25
:1041A0001F46012D27F8024B40F0A280013A31460C
:1041B0003B46F2E0002AA4F8063400F083804B89E5
:1041C0000132496903444FF0FF34C2F3410503F55E
:1041D000806304EB5208002D4FEA520200F0F98090
:1041E0000E4636F8024B1F46012D27F8024B40F0D1
:1041F0008780013A31463B46EBE000BF08EB0705FC
:10420000A5F80634D1F814B0002E00F067814D896E
:104210000136054405F580694FF0FF3505EB56047E
:10422000C6F34105002D4FEA560773D05E46CDE92F
:10423000004836F8028B5C46CB46012D2BF8028BEA
:1042400040F07A80D946DDF80480A346009C013F07
:1042500033E100BFBEF80250022CA8F8025009D189
:1042600008F104080EF1040E023A0CE002F1D00647
:104270001AE700BFBEF804400EF1060EA8F804408D
:1042800008F10608033ABCF1030F0FD3AEF108079B
:10429000A8F1080637F8085F043A26F8085F7D8819
:1042A0007580BD88B580FD88F580F3D1B0F85020C9
:1042B0000978024402EBC10248F2B00CA2F80234C1
:1042C0004FEA410E40F63F7130F81E20114081EA5E
:1042D0000C0120F81E10002002B0BDE8F08F00BFD6
:1042E0004C88022D5C8037D104330431023A38E027
:1042F0004C88022D5C804BD104330431023A4CE0EF
:104300004C88022D5C805FD104330431023A60E0B6
:104310005E467EE05E46D0E06688A346A9F802606D
:10432000DDF80480009C022D6AD109F104090BF12B
:104330000406023F6DE000BF6688A346A9F802604C
:10434000DDF80480009C022D40F0AE8009F10409E4
:104350000BF10406023FB0E08C8806319C800633E6
:10436000033AB8F1030FADD3A1F10804083B00BF35
:1043700034F8081F043A23F8081F61885980A1887F
:104380009980E188D98040F63F71F1D19CE700BF68
:104390008C8806319C800633033AB8F1030FFFF492
:1043A00091AFA1F10804083B34F8081F043A23F840
:1043B000081F61885980A1889980E188D98040F6DA
:1043C0003F71F1D180E700BF8C8806319C800633B5
:1043D000033AB8F1030FFFF475AFA1F10804083BED
:1043E00034F8081F043A23F8081F61885980A1880F
:1043F0009980E188D98040F63F71F1D164E700BF30
:10440000BBF804500BF10606A9F8045009F106099F
:10441000033F032C0ED3083EA9F1080536F8084FD8
:10442000043F25F8084F74886C80B488AC80F48809
:10443000EC80F3D10BEB030600244E61924588BF5C
:10444000AAEB03040C62B0F8502088BF9A4608EB30
:1044500002031FFA8AF2002AA3F806A43FF432AF3F
:104460004989013201444FF0FF33C2F3410401F5A1
:10447000806103EB5208002C4FEA52026BD03546A4
:1044800035F8023B0F46012C27F8023B04D1013AD4
:104490002E4639465FE000BF7388022C4B8055D111
:1044A00004310436023A56E0BBF804500BF106061C
:1044B000A9F8045009F10609033F032C0ED3083E66
:1044C000A9F1080536F8084F043F25F8084F74880D
:1044D0006C80B488AC80F488EC80F3D10BEB0306DD
:1044E00000244E61924588BFAAEB03040C62B0F829
:1044F000502088BF9A4608EB02031FFA8AF2002A6E
:10450000A3F802A43FF4DEAE0989013201444FF062
:10451000FF33C2F3410401F5806103EB52084FEA17
:104520005202B4B3354635F8023B0F46012C27F84A
:10453000023B03D1013A2E4639462AE07388022C09
:104540004B8021D104310436023A22E0B38806368A
:104550008B800631033AB8F1030FFFF4B3AEA6F136
:104560000803A1F1080400BF33F8081F043A24F837
:10457000081F598861809988A180D988E18040F618
:104580003F71F1D1A0E600BFB38806368B800631BB
:10459000033AB8F1030FFFF495AEA6F10803A1F1B9
:1045A000080400BF33F8081F043A24F8081F59888C
:1045B00061809988A180D988E18040F63F71F1D16E
:1045C00082E60000014600204BF68072A1F844000C
:1045D000A1F840207047000041F6DC00C2F2000064
:1045E000FCF764BAB0F844007047000070B510449E
:1045F000022B00F5806440D34FF0FF32C3F3410536
:10460000580802EB530C4DB1224632F8026B8E462D
:10461000012D2EF8026B07D1013815E02246BCF1BE
:10462000030F144616D229E06288022D4A8005D174
:10463000221D01F1040E023806E000BFA688A21D6B
:1046400001F1060E03388E807146BCF1030F14464B
:1046500014D300BF32F8086B043821F8086B32F825
:10466000066C21F8066C32F8046C21F8046C32F800
:10467000026C21F8026CEDD114468E46D8071CBF9F
:1046800020888EF8000070BD002904BF8021A0F8AA
:104690004C10002070470000002B08BF7047B0B5D9
:1046A000104400F5806E581C4FF0FF32C0F34103F8
:1046B00002EB500C4FEA5000BBB10A4632F8025BE5
:1046C0007446012B24F8025B06D101381146A64638
:1046D000BCF1030F0CD21BE04A88022BAEF802207B
:1046E0001AD10EF1040E04310238BCF1030F0FD3BE
:1046F0000839AEF1080200BF31F8083F043822F84B
:10470000083F4B8853808B889380CB88D380F3D12C
:10471000BDE8B040704700BF8A880631AEF804207B
:104720000EF1060E0338BCF1030FE1D2F0E70000F2
:10473000FEE7000094B0FBF777FF00240020CDE9EE
:104740000A44CDE90844FDF707F8212006904FF40C
:104750008030079001200C900220032555210D90F8
:10476000CDE90E50CDE91010CDE9120006A8FDF7F5
:10477000BBFB28B1EFF3108072B600BFFEE700BFAD
:104780000F20CDE9010501A80421CDE903440594DA
:10479000FDF7ECF920B1EFF3108072B6FEE700BF31
:1047A000FDF7A6FFFDF7DCFFFEE7F1EE100A4FF67E
:1047B000FF71C0F2C03120EA010040F04070E1EE2C
:1047C000100A70470000000000000000010203040E
:1047D0000607080900000000010203040048000861
:1047E00000000020880100003C020008C8480008C2
:1047F00088010020802000009C02000800000000CA
:104800003210320113C92A1408092C1B0819041A82
:1048100045041AB10413C5291408E12B52081324C6
:10482000F41A490C1A85284B4D2E141AD90C1AE982
:10483000241A5908C11A29281A19041A39042A09EC
:10484000041302431302011DC03209046D1A020B46
:104850001305241610010524011009010424020285
:104860000524061701070582030815100904013302
:10487000020A2E0705010240072A81071109374461
:10488000113A02441907111A12171302021E40832B
:104890000440574D1B0203F92B0A061A111A400B4C
:1048A000112B0907640A3B04A813F9031B08F5043C
:1048B0001AF1041325041B084104071E040309040C
:0848C0001A03000000000000D3
:04000005080001D915
:00000001FF
